:020000041000EA
:1000000000B5324B212058609868022188439860DF
:10001000D860186158612E4B002199600221596106
:100020000121F02299502B49196001219960352056
:1000300000F044F80222904214D00621196600F024
:1000400034F8196E01211966002018661A6600F04E
:100050002CF8196E196E196E052000F02FF8012189
:100060000842F9D1002199601B49196000215960AB
:100070001A491B48016001219960EB211966A021F2
:10008000196600F012F800219960164914480160C1
:100090000121996001BC002800D000471248134993
:1000A000086003C880F30888084703B5996A0420EC
:1000B0000142FBD001200142F8D103BD02B5186610
:1000C0001866FFF7F2FF186E186E02BD00000240BE
:1000D000000000180000070000035F00212200005C
:1000E000F4000018222000A00001001008ED00E03C
:1000F00000000000000000000000000074B24E7A12
:1001000000200420F7010010C3010010C5010010F9
:10011000C1010010C1010010C1010010C101001097
:10012000C1010010C1010010C1010010C701001081
:10013000C1010010C1010010C9010010CB01001065
:10014000CD010010CD010010CD010010CD01001037
:10015000CD010010CD010010CD010010CD01001027
:10016000CD010010CD010010CD010010CD01001017
:10017000CD010010CD010010CD010010CD01001007
:10018000CD010010CD010010CD010010CD010010F7
:10019000CD010010CD010010CD010010CD010010E7
:1001A000CD010010CD010010CD010010CD010010D7
:1001B000CD010010CD010010CD010010CD010010C7
:1001C00000BE00BE00BE00BE00BE00BE00F04BF888
:1001D000103800BEF2EB88713CAC011064AC011029
:1001E0003402001090A31AE700202149086006C8D5
:1001F00081F3088810471F48006800282FD10DA4FC
:100200000ECC002902D000F012F8F9E71A491B4A77
:10021000002000E001C19142FCD1194988471949E9
:1002200088471949884700BEFDE701C901C29A42C3
:10023000FBD3704764AC0110C00000207C0F00208D
:1002400020BB0110000004200000042020BB01108E
:1002500000100420001004200000000070470B482C
:100260000AF012FE0047EFF30580C0B270470000AD
:1002700008ED00E0000000D0800F002024200020C6
:100280009591001085170010BD9200105756000080
:1002900006005250ABB360534C8D01100600525013
:1002A000861C03025C8D0110060052505422A29D50
:1002B0006C8D011005005250DE65F46820BB011002
:1002C000F8B5C0460448054B10B5834203D0044B33
:1002D000002B00D0984710BD7C0F00207C0F002021
:1002E0000000000006480749091A8910CB0F591869
:1002F00010B5491003D0044B002B00D0984710BD17
:100300007C0F00207C0F00200000000010B5074C7F
:100310002378002B09D1FFF7D5FF054B002B02D026
:10032000044800E000BF0123237010BD88100020A6
:1003300000000000F8650110054B10B5002B03D03C
:100340000449054800E000BFFFF7CCFF10BDC046E0
:10035000000000008C100020F865011070B58AB014
:100360006C4600210500242201A80BF0DFFC2200CE
:10037000094B43CB43C203CB03C21320290068447B
:1003800010F0B6FD210005480BF06AFF962008F03A
:1003900069F90AB070BDC046E8880110FC880110F8
:1003A00010B504480BF05CFF034B1B68586810F055
:1003B0000BF810BD1C880110A805002010B50029FD
:1003C00007D0010007480BF04BFF962008F04AF9D0
:1003D00010BD010004480BF043FF9620400008F0D8
:1003E00041F9F5E7FC8801102C88011084B0F0B5C4
:1003F00089B006000F91171E1092119320DD00297D
:1004000000DC6DE01D680024012F5ED0E100002CAF
:1004100009D12868696800223B4B0BF041F800289D
:1004200033D0082101246918002208684968002394
:100430000BF036F8002828D00134A742E6DC01E0B2
:1004400000294DDD002301AD1522002102A80193F2
:100450000BF06CFC280010F0C7FE04002B49281894
:100460000E220BF069FC20000E302818310010F02D
:100470003FFD290026480BF0F3FE962008F0F2F825
:1004800009B0F0BC08BC04B01847002301AD0193CB
:100490001522002102A80BF049FC280010F0A4FE50
:1004A00004000E22281819490BF046FC20000E30DB
:1004B0003100281810F01CFD290016480BF0D0FE62
:1004C0009620400008F0CEF8DAE700222868696834
:1004D0000D4B0AF0E5FF0028B4D101AD0190D7E73C
:1004E0000023002101AD152202A801930BF01EFC90
:1004F0002A00064B13CB13C212201B883100138035
:10050000684410F0F5FCB4E70000F03F9C8801104F
:10051000FC8801102C88011084B0F0B54546DE46F9
:1005200057464E46E0B599B003902391080011005C
:10053000249225931A0002908846002800DCFCE0F3
:10054000002391469B469A46019343460024002B84
:1005500000DCA7E05346002B00D081E04B461B682F
:10056000E5009C4665442E686F680022804B300091
:1005700039000AF0B3FF00285BD000227D4B300029
:1005800039000AF095FF013400220023002800D032
:1005900072E0300039000AF083FF00285ED0A045E9
:1005A00064DD00232422002104AC049305A80BF091
:1005B000BDFB200010F018FE050012226E49201825
:1005C0000BF0BAFB280012302018039910F090FCB1
:1005D00001239B46210069480BF042FE9620400013
:1005E00008F040F800210EAC24220FA80BF09EFB6F
:1005F0002200634B23CB23C21B883620138004AB1D
:100600009C460399604410F073FC5B462100002B6C
:1006100066D15C480BF024FE962008F023F819B050
:100620003CBC90469946A246AB46F0BC08BC04B020
:100630001847002200233000390001340AF030FF4F
:1006400000280BD04445ACDB019B029A01339A424F
:10065000A7D1002104AC04912422A7E744451FDA66
:1006600001239A465B46002B00D177E7019B029A53
:1006700001339A4295D1ECE7300039000AF010FFBF
:10068000002809D0A0451EDD01239B4653460835AE
:10069000002B00D167E784E7A04500DD5AE701E0C1
:1006A00001239A46019B029A013301939A4221D079
:1006B0005346002B03D05B46002B00D071E7042388
:1006C0009C46E14441E7019B029A013301939A421F
:1006D0000ED05346002B00D063E701239B46EEE784
:1006E00026480BF0BDFD9620400007F0BBFF96E7C3
:1006F00001239B46002304AC2422002105A8049377
:100700000BF014FB200010F06FFD050012221A49B7
:1007100020180BF011FB280012302018039910F05C
:10072000E7FB5346002B00D054E7210015480BF09F
:1007300097FD962007F096FF54E70023002124221E
:1007400004AC05A804930BF0F1FA22000A4B23CB6A
:1007500023C21968122011609B88938004AB9C46C9
:100760000399604410F0C4FB00239B46DDE7C046BC
:100770000000F0BF0000F03F0C8901102C88011030
:1007800020890110FC88011084B0F0B589B0060002
:100790000F91171E1092119320DD002900DC6DE0EF
:1007A0001D680024012F5ED0E100002C09D12868CB
:1007B0006968002200230AF073FE002833D1082163
:1007C0000124691800220868496800230AF068FEBD
:1007D000002828D00134A742E6DC01E000294DDDE5
:1007E000002301AD1522002102A801930BF09EFA0F
:1007F000280010F0F9FC04002A4928180E220BF0FA
:100800009BFA20000E302818310010F071FB2900EF
:1008100025480BF025FD962007F024FF09B0F0BC19
:1008200008BC04B01847002301AD01931522002134
:1008300002A80BF07BFA280010F0D6FC04000E2270
:10084000281818490BF078FA20000E3031002818CB
:1008500010F04EFB290015480BF002FD96204000D9
:1008600007F000FFDAE700222868696800230AF031
:1008700017FE0028B4D001AD0194D7E70023002172
:1008800001AD152202A801930BF050FA2A00054B86
:1008900013CB13C212201B8831001380684410F060
:1008A00027FBB4E78C880110FC8801102C8801100C
:1008B00084B0F0B55746DE464E464546E0B589B0B1
:1008C00015939946199B170014929B4682461391E3
:1008D000884600230122002F44DD984566DD9A42B8
:1008E00066DD4B461D685B4600261C68226863680F
:1008F000286869680AF0D4FD00282AD1002315224F
:10090000002102A801930BF011FA01A810F06CFC71
:10091000040001AB102218182F490BF00DFA01AB9F
:1009200020009C460F306044514610F0E1FA01A9C6
:100930002A480BF095FC9620400007F093FE09B082
:100940003CBC90469946A246AB46F0BC08BC04B0FD
:1009500018470136083508340123BE42C6D10122AA
:10096000002FBADC984500DC0022934220DA0023F5
:1009700001AD1522002102A801930BF0D7F9280040
:1009800010F032FC04001449281810220BF0D4F99E
:1009900020000F302818514610F0AAFA29001048FC
:1009A0000BF05EFC962007F05DFEC8E7002296E79C
:1009B0000023002101AD152202A801930BF0B6F926
:1009C0002A00054B13CB13C213201B68514613603A
:1009D000684410F08DFAE1E7688801102C88011056
:1009E000FC88011084B0F0B54746CE4680B587B08C
:1009F0008046119399460F000F9116001092002027
:100A00000123002E3EDD874260DD834260DD4B46E0
:100A100000251C6800222068616800230AF040FD60
:100A2000002827D110220021019002A80BF07EF9A6
:100A300001A810F0D9FB040001AB0C2218182D49B5
:100A40000BF07AF901AB20009C460B306044414624
:100A500010F04EFA01A928480BF002FC9620400045
:100A600007F000FE07B00CBC90469946F0BC08BCED
:100A700004B01847013508340120B542CAD101231A
:100A8000002EC0DC874200DC0023834220DD0023EF
:100A900001AD1022002102A801930BF047F92800B4
:100AA00010F0A2FB0400134928180C220BF044F9A3
:100AB00020000B302818414610F01AFA29000F4880
:100AC0000BF0CEFB962007F0CDFDCBE700239CE793
:100AD0000023002101AD102202A801930BF026F99A
:100AE0002A00044B13CB13C20F204146684410F078
:100AF000FFF9E3E7B88901102C880110FC88011088
:100B000084B0F0B54E46DE4657464546E0B593B054
:100B10000390081E1D911E921F930090914669DD5F
:100B20001F9B0193239B029300239A469B4601231C
:100B30009C464B46E244002B59DD25980AF0E6FC22
:100B40005A46019B06009D58029B0F009C580023AB
:100B5000984622686368300039000AF05EFC0200A3
:100B60000B00286869680AF09BFC00282CD1009BC8
:100B700053455EDC002105902E2205AC06A80BF043
:100B8000D5F82200394B23CB23C223CB23C203CB7E
:100B900003C21B882620138004AB9C460399604443
:100BA00010F0A6F9210032480BF05AFB96204000C5
:100BB00007F058FD13B03CBC90469946A246AB46A0
:100BC000F0BC08BC04B0184701239C46E04408353B
:100BD0000834C845BDD1009B534541DD04239C46E4
:100BE0000123E3449C464B46E244002BA5DC009BDA
:100BF0005345F3DC00232E22002105AC059306A803
:100C00000BF094F8200010F0EFFA050022222018D3
:100C100016490BF091F8280022300399201810F0A3
:100C200067F9210013480BF01BFB962007F01AFD13
:100C3000C0E705AC05902E22002106A80BF076F83F
:100C4000200010F0D1FA05002222201807490BF0ED
:100C500073F8280022302018039910F049F9A1E711
:100C6000002105AC05912E22C9E7C046508901102C
:100C70002C880110FC88011084B0F0B5DE46454692
:100C800057464E468846E0B59FB02E9D0CAC0A9064
:100C90002000299107912A922B9303950EF00AF9CF
:100CA00010ABC2CCC2C3226841461A6010A82A0009
:100CB0000EF0B0F942462A9B002A00DCC3E02F98D0
:100CC0001299049003980B912B9A002844DD002B75
:100CD00042DD8C460592079ADB0092006244069141
:100CE00008920993069B099A1B680193059B1B6850
:100CF0009C46029300236244924698469B46019B81
:100D0000049D434499461E685F68029C02CD0CCC4A
:100D10004144086849680AF080FB0B000200390072
:100D200030000AF053FB4B4606000F001E605F6068
:100D3000A245EBD101239C460733E3449C46039B29
:100D4000E0445B45DBD1059A069B04320592089A84
:100D5000043306939A42C5D1339B0027994600235A
:100D600098460B9BBA469B46039F01239C46E24450
:100D7000002F61DD4B4642469D585B4600269C583D
:100D800022686368286869680AF08AFB00282ED107
:100D9000079B534538DC00230021242214AC15A8FE
:100DA00014930AF0C3FF2200364B23CB23C223CB7C
:100DB00023C21B683B2013600CAB9C460A9960441D
:100DC00010F096F8210030480BF04AFA96204000C7
:100DD00007F048FC10A80EF075F81FB03CBC904618
:100DE0009946A246AB46F0BC08BC04B01847013691
:100DF00008350834BE42C3D1079B53451FDC002190
:100E000014AC1491242223E0002314AC24220021EA
:100E100015A814930AF08AFF200010F0E5F90500E8
:100E20001C22201817490AF087FF28001B302018C1
:100E30000A9910F05DF8C5E7079B534503DD0423CD
:100E40009C46E04491E700232422002114AC149333
:100E500015A80AF06BFF200010F0C6F905001C224F
:100E6000201808490AF068FF28001B300A9920184A
:100E700010F03EF8210005480BF0F2F9962007F03B
:100E8000F1FBA7E7CC8801102C880110FC88011029
:100E900084B0F0B5DE46454657464E46E0B593B0C1
:100EA0000390081E1D911E921F93834690465FDD9E
:100EB0001F9B0093239B0193279B029300239A4639
:100EC000994601239C464346E244002B4EDD4A46A8
:100ED0000027009B9E58019B9D58029B9C582A68A6
:100EE0006B68306871680AF071FA226863680AF00A
:100EF000D7FA002829D1D34559DC002105902E22AC
:100F000005AC06A80AF012FF2200374B23CB23C200
:100F100003CB03C21B781920137004AB9C460399C2
:100F200060440FF0E5FF210030480BF099F996205E
:100F3000400007F097FB13B03CBC90469946A24690
:100F4000AB46F0BC08BC04B018470137083608357A
:100F500008344745C3D1D34540DD04239C460123D3
:100F6000E1449C464346E244002BB0DCD345F4DC2C
:100F700000232E22002105AC059306A80AF0D6FE18
:100F8000200010F031F905001522201816490AF04A
:100F9000D3FE28001530039920180FF0A9FF210077
:100FA00013480BF05DF9962007F05CFBC3E705AC36
:100FB00005902E22002106A80AF0B8FE200010F0AD
:100FC00013F905001522201807490AF0B5FE28007C
:100FD0001530201803990FF08BFFA4E7002105AC12
:100FE00005912E22C9E7C046508801102C880110B7
:100FF000FC88011084B0F0B5DE46454657464E46A3
:10100000E0B593B00390081E1D911E921F93834676
:1010100090465ADD1F9B0093239B0193279B0293CD
:1010200000239A46994601239C464346E244002BFE
:1010300049DD4A460027009B9E58019B9D58029B14
:101040009C582A686B68306871680AF0B6F92268A3
:1010500063680AF025FA002824D1D34554DC002126
:1010600005902E2205AC06A80AF060FE2200344B43
:1010700023CB23C223CB23C20BA803990FF038FF45
:10108000210030480BF0ECF89620400007F0EAFA17
:1010900013B03CBC90469946A246AB46F0BC08BC97
:1010A00004B0184701370836083508344745C8D119
:1010B000D34540DD04239C460123E1449C4643463E
:1010C000E244002BB5DCD345F4DC00232E220021C2
:1010D00005AC059306A80AF029FE200010F084F85C
:1010E00005001822201816490AF026FE280018309C
:1010F000039920180FF0FCFE210013480BF0B0F804
:10110000962007F0AFFAC3E705AC05902E22002128
:1011100006A80AF00BFE200010F066F80500182261
:10112000201807490AF008FE2800183020180399F3
:101130000FF0DEFEA4E7002105AC05912E22C9E7E1
:10114000748901102C880110FC88011084B0F0B55E
:1011500057464546DE464E46E0B591B00190081E22
:101160001B911C921D93824690466BDD00221D9BB5
:101170009146043B9B46219F01239C464346E14404
:10118000002B5DDD4B465A460024DE009B00D558FF
:10119000083EA300FB58286869689B191A685B68B9
:1011A0000AF07EF9002829D1CA4532DC00210390DB
:1011B0002E2203AC04A80AF0B9FD2200314B23CB48
:1011C00023C203CB03C21B881A20138002AB9C46A8
:1011D000019960440FF08CFE21002B480BF040F881
:1011E0009620400007F03EFA11B03CBC904699466C
:1011F000A246AB46F0BC08BC04B018470134083521
:101200004445C6D1CA45B7DC002103AC03912E2268
:101210001DE003AC03902E22002104A80AF086FDF5
:1012200020000FF0E1FF05001622201815490AF0F2
:1012300083FD28001630201801990FF059FECBE7E6
:10124000CA4599DC00232E22002103AC039304A895
:101250000AF06CFD20000FF0C7FF050016222018D1
:1012600008490AF069FD28001630019920180FF08E
:101270003FFE210005480AF0F3FF962007F0F2F93F
:10128000B2E7C046A08901102C880110FC8801102B
:1012900084B0F0B5C64600B584B001AC06002000AD
:1012A0000F000B910C921D000D9390460EF034FF31
:1012B000012F27D04346012B12D04246390019484E
:1012C0000AF0CEFF18480AF0CBFF330007CC07C363
:1012D000300004B004BC9046F0BC08BC04B0184711
:1012E000390020000EF01EFF21680029EDDD626844
:1012F0002B00CD00AD1802CB0868496803C2AA4292
:10130000F9D1E2E7414620000EF00CFF01990029D7
:10131000DBDD2B686268CD00ED1803CB03C29D4274
:10132000FBD1D2E7C4890110CC89011084B0F0B59B
:10133000DE4657464E464546E0B5A5B083462FA843
:101340008360369B42609A4612AB994680460AA853
:101350002F910DF0AFFD4B460AAA13CA13C31268B2
:1013600016AF1A60339C3800349E0DF0A3FD2200A6
:10137000012138000DF04EFE002C07DDBA68E400B4
:101380001268341903CE03C2A642FBD11AAC102254
:10139000390020000AF0D0FC06AE21001022484699
:1013A0000AF0CAFC30000EF0B7FE32000FAB23CAC1
:1013B00023C30AA80DF07EFD3B000AAD07CD07C38D
:1013C0002A681A606A464346049723CB23C21B68E7
:1013D00013604B46129859689A68DB680DF0E2FF7B
:1013E000FB68169900937A68BB683000FFF750FFDE
:1013F00032000FAB23CA23C35346002B12DD002358
:1014000098467668379D2A686B68306871680AF07C
:1014100047F8002836D001239C46E04408360835BA
:10142000D045F0D10023242200211BA81A930AF0F2
:101430007DFC20000FF0D8FE05001D222049201859
:101440000AF07AFC28001D30594620180FF050FD94
:1014500021001C480AF004FF962007F003F9380029
:101460000DF030FD48460DF02DFD0FA80EF034FEB6
:1014700025B03CBC90469946A246AB46F0BC08BCA1
:1014800004B01847002124221BA80AF04FFC2200B8
:101490000B4B23CB23C223CB23C28520196868447E
:1014A00011601B79594613710FF022FD2100064887
:1014B0000AF0D6FE9620400007F0D4F8CFE7C046E9
:1014C00030890110FC8801102C88011084B0F0B51F
:1014D000DE4657464E464546E0B5A5B03193369BAD
:1014E00083469A4612AB99460AAB984618002F914C
:1014F00030920DF0DFFC4B46424613CA13C312680C
:1015000016AF1A60339E3800349C0DF0D3FC0122D4
:10151000310038000DF07EFD002E09DD2300F600BD
:10152000BA68A61910CA03CB20606160B342F9D132
:101530001AAC1022390020000AF0FEFB06AE210092
:10154000102248460AF0F8FB30000EF0E5FD3200AC
:101550000FAB23CA23C340460DF0ACFC45463B000D
:1015600007CD07C32A681A606B464A46049723CA08
:1015700023C312681A603099319A329B2F980DF06C
:1015800011FFFB68169900937A68BB683000FFF77B
:101590007FFE32000FAB23CA23C35346002B12DD5C
:1015A000002398467668379D2A686B6830687168B2
:1015B00009F076FF002836D001239C46E044083627
:1015C0000835D045F0D10023242200211BA81A930E
:1015D0000AF0ACFB20000FF007FE05001D22204999
:1015E00020180AF0A9FB28001D30594620180FF0DA
:1015F0007FFC21001B480AF033FE962007F032F8EA
:1016000038000DF05FFC48460DF05CFC0FA80EF0B2
:1016100063FD25B03CBC90469946A246AB46F0BC63
:1016200008BC04B01847002124221BA80AF07EFB46
:1016300022000B4B23CB23C223CB23C28520196866
:10164000684411601B79594613710FF051FC210059
:1016500005480AF005FE9620400007F003F8CFE7A2
:10166000AC880110FC8801102C88011070B58AB07C
:101670001900060010000E9A0F9B09F09EFE49000B
:101680004D08214A214B290009F012FF00281ED0E5
:1016900000232422002101A800930AF047FB68469A
:1016A0000FF0A2FD04001122194968440AF044FB1E
:1016B00020001130310068440FF01AFC69461548CB
:1016C0000AF0CEFD962006F0CDFF0AB070BD6C4644
:1016D0000021242201A80AF029FB22000C4B23CB75
:1016E00023C211201968684411601B7931001371FD
:1016F0000FF0FEFB210008480AF0B2FD96204000E2
:1017000006F0B0FFE1E7C0463A8C30E28E79453E04
:1017100078880110FC8801102C88011084B070B505
:101720008EB002AC050020001391149215930DF0B9
:10173000C1FB169B00941499159A13980EF092F819
:1017400006AC00211A2207A80AF0F0FA22000B4B7F
:1017500043CB43C227201B682900136068440FF065
:10176000C7FB210006480AF07BFD962006F07AFFB1
:101770000EB070BC08BC04B01847C0469089011078
:10178000FC880110F0B5DE4657464E464546E0B5AA
:10179000A5B00AF071FDFEF703FEFEF701FEF54865
:1017A0000AF05EFD14A820AC0DF084FB14AB1F0002
:1017B00025000ECF0EC53B68C8202B6006F052FFF7
:1017C0002099ED484B425941C9B2FEF7F7FD6168D7
:1017D000EA484B425941C9B2FEF7F0FDE168E848DA
:1017E0004B425941C9B2FEF7E9FDA168E5484B42B9
:1017F0005941C9B2FEF7E2FD20000DF063FBC8209D
:1018000006F030FFE0480AF02BFDFEF7C9FDDF4887
:101810000AF026FDC82006F025FFDD480AF020FD6D
:1018200014A80DF047FB23002E0014AA23CA23C3DB
:101830003B68C820336006F015FF01220123209287
:1018400021930023012201212000A3600DF0E2FB7F
:10185000013041424141CF48C9B2FEF7AFFD626855
:10186000209B00211343E268134303D1A1684B423C
:101870005941C9B2C848FEF7A1FD20000DF022FB76
:101880000022002120000DF0C5FB01304142414102
:10189000C248C9B2FEF792FD6268209B0021134343
:1018A000E268134303D1A1684B425941C9B2BC4815
:1018B000FEF784FD20000DF005FB00220121200031
:1018C0000DF0A8FB013041424141B648C9B2FEF7D4
:1018D00075FD6268209B00211343E268134303D126
:1018E000A1684B425941C9B2AF48FEF767FD2000DD
:1018F0000DF0E8FA0522002120000DF08BFB0130ED
:1019000041424141A948C9B2FEF758FD6268209B97
:1019100000211343E268134303D1A1684B425941AC
:10192000C9B2A348FEF74AFD20000DF0CBFA022110
:101930000322494220000DF06DFB0130414241413C
:101940009C48C9B2FEF73AFD6268209B0021134310
:10195000E268134303D1A1684B425941C9B296488A
:10196000FEF72CFD20000DF0ADFA052201215242B8
:10197000494220000DF04EFB0130414241418F4869
:10198000C9B2FEF71BFD6268209B00211343E26889
:10199000134303D1A1684B425941C9B28848FEF7AD
:1019A0000DFD20000DF08EFAC82006F05BFE854884
:1019B0000AF056FCFEF7F4FC83480AF051FC14A828
:1019C0000DF078FA230014AA23CA23C31268C82092
:1019D0001A6006F047FE0122012120000DF01AFBDB
:1019E00041424141794FC9B23800FEF7E7FC209BE4
:1019F0000021012B01D105F078FF754D2800FEF77D
:101A0000DDFC20000DF05EFA0122012120000DF026
:101A100001FB414241413800C9B2FEF7CFFC209B97
:101A20000021012B01D105F050FF2800FEF7C6FC74
:101A300020000DF047FA0522052120000DF0EAFAFA
:101A4000414241416348C9B2FEF7B8FC209B0021E6
:101A5000052B01D105F029FF5F48FEF7AFFC200000
:101A60000DF030FA01220A2120000DF0D3FA414294
:101A700041415A48C9B2FEF7A1FC209B00210A2B24
:101A800001D105F002FF5648FEF798FC20000DF04A
:101A900019FA0F22022120000DF0BCFA4142414107
:101AA0005048C9B2FEF78AFC209B0021022B01D1CD
:101AB00005F0DBFE4C48FEF781FC20000DF002FA39
:101AC000C82006F0CFFD3F480AF0CAFBFEF768FCCD
:101AD00046480AF0C5FB14A80DF0ECF9230014AA3F
:101AE00023CA23C3FA251268C8201A60AD0006F085
:101AF000B9FD0122290020000DF08CFA414241413C
:101B00003B48C9B2FEF75AFC209B0021AB4201D1F1
:101B100005F09BFE3748384DFEF750FC20000DF0D5
:101B2000D1F92A00052120000DF074FA414241410B
:101B30003248C9B2FEF742FC209B0021052B01D19F
:101B400005F073FE2E48FEF739FC20000DF0BAF9BF
:101B50007F227F2120000DF05DFA4142414129485A
:101B6000C9B2FEF72BFC209B00217F2B01D105F091
:101B70004CFE49E0F8650110406601104C6601100A
:101B80005C6601107066011080660110CC66011061
:101B90001467011040670110546701107467011049
:101BA00094670110B0670110D0670110EC67011055
:101BB0000C68011028680110486801106468011061
:101BC00084680110A0680110F068011020690110FC
:101BD0003C69011058690110746901109069011085
:101BE000B0690110CC690110EC690110086A01109C
:101BF000386A0110586A01101A040000786A01104E
:101C0000986A0110B86A0110FC48FEF7D7FB200063
:101C10000DF058F9C82006F025FDF9480AF020FB20
:101C2000C82006F01FFDF7480AF01AFBFEF7B8FBC4
:101C3000F5480AF015FB14A80DF03CF9230014AA8E
:101C400023CA23C31268C8201A6006F00BFD0122C4
:101C500001232092219300232000A3600DF032F98C
:101C6000013041424141E948C9B2FEF7A7FB2000DB
:101C70000DF028F90422012120000DF0CBF92000FD
:101C80000DF020F941424141E148C9B2FEF796FB0F
:101C90006268209B00211343E268134303D1A168CB
:101CA0004B425941C9B22700DA48FEF787FB2000B2
:101CB0000DF008F9C82006F0D5FCD2480AF0D0FA99
:101CC000FEF76EFBD4480AF0CBFAD4480AF0C8FA03
:101CD00014A80DF0EFF814AB07CB07C799461B68A3
:101CE000C8200A973B60012506F0BCFC00230122B6
:101CF00001212000209521951E00A3600DF012F90E
:101D0000013041424141C148C9B2FEF757FB2000B2
:101D10000DF0D8F80122012120000DF07BF90322FB
:101D2000002120000DF0FEF8013041424141BC4845
:101D3000C9B2FEF743FB20000DF0C4F801220121D7
:101D400020000DF067F901210122494220000DF029
:101D5000E9F8013041424141B248C9B2FEF72EFBD9
:101D600020000DF0AFF80122012120000DF052F902
:101D7000042201215242494220000DF0D3F80130E3
:101D800041424141A848C9B2FEF718FB20000DF0BE
:101D900099F8C82006F066FC99480AF061FAFEF747
:101DA000FFFAA2480AF05CFA14A80DF083F82200AA
:101DB00014A92F0029C929C24A460A9B1268C820C3
:101DC0001A6006F04FFC0122012120000DF022F9DB
:101DD0000122012120000DF0A5F841424141944823
:101DE000C9B2FEF7EBFA20000DF06CF802220121D7
:101DF00020000DF00FF90122012120000DF092F8D2
:101E0000414241418B48C9B2FEF7D8FA20000DF09B
:101E100059F80122042120000DF0FCF801220121D3
:101E200020000DF07FF8414241418348C9B2FEF7DE
:101E3000C5FA20000DF046F80222022120000DF024
:101E4000E9F80122012120000DF06CF841424141E6
:101E50007A48C9B2FEF7B2FA20000DF033F8012239
:101E6000012120000DF0D6F80122032120000DF001
:101E700059F8414241417248C9B2FEF79FFA200029
:101E80000DF020F80222032120000DF0C3F80522F6
:101E9000032120000DF046F8414241416948C9B292
:101EA000FEF78CFA20000DF00DF806220321200029
:101EB0000DF0B0F80722052120000DF033F8414263
:101EC00041416148C9B2FEF779FA20000CF0FAFFEF
:101ED0000622012120000DF09DF80222072120009A
:101EE0000DF020F8414241415848C9B2FEF766FA68
:101EF00020000CF0E7FF0122082120000DF08AF8F5
:101F00000C22032120000DF00DF8414241415048C0
:101F1000C9B2FEF753FA20000CF0D4FF01220121D0
:101F200020000DF077F87F227F2120000CF0FAFFCF
:101F3000414241414748C9B2FEF740FA20000CF047
:101F4000C1FFC82006F08EFB2D480AF089F9C82091
:101F500006F088FB2B480AF083F9FEF721FA3E4889
:101F60000AF07EF92D480AF07BF914A80CF0A2FFC4
:101F7000220014A929C929C24A460A9B1268C8200E
:101F80001A6006F06FFB0121200020972197A660C0
:101F90000DF0A4F80130414241411C48C9B2FEF79E
:101FA0000DFA20000CF08EFF002120000DF096F8B5
:101FB0000130414241412948C9B2FEF7FFF92000F2
:101FC0000CF080FF0321200049420DF087F801301A
:101FD000414241412248C9B2FEF7F0F920000CF01D
:101FE00071FF07480AF03CF9FEF7DAF90F480AF0EA
:101FF00037F914A80CF05EFF14AA33E0D86A011078
:10200000A068011080660110F86A01104067011095
:10201000346B01104C6B0110706B011014670110D0
:10202000BC6B0110E46B01100C6C0110346C0110DE
:102030005C6C0110846C0110AC6C0110D46C01104C
:10204000FC6C0110246D01104C6D0110746D0110B9
:102050009C6D0110C86D0110F46D0110446E0110EB
:10206000606E0110100021002CC82CC149460A9B4B
:102070000968C820196006F0F5FA012120000DF06A
:102080002DF8E168FD4800916268A3682099FEF789
:10209000ADF920000CF016FF032120000DF01EF812
:1020A000E168F74800916268A3682099FEF79EF9FD
:1020B00020000CF007FF082120000DF00FF8E16868
:1020C000F04800916268A3682099FEF78FF920001C
:1020D0000CF0F8FE152120000DF000F8E168EA4848
:1020E0000091A36820996268FEF780F920000CF047
:1020F000E9FEC82006F0B6FAE4480AF0B1F8C820B4
:1021000006F0B0FAE2480AF0ABF8FEF749F9E14808
:102110000AF0A6F8E0480AF0A3F8C82006F0A2FAF0
:10212000320001210132200020972197A6600DF096
:102130003FF8013041424141D848C9B2FEF73EF96B
:1021400020000CF0BFFE02210122494220008B46F4
:102150000DF02EF8013041424141D148C9B2FEF79D
:102160002DF920000CF0AEFE0022042120000DF01D
:102170001FF8013041424141CA48C9B2FEF71EF979
:1021800020000CF09FFE04215A46494220000DF029
:102190000FF8013041424141C348C9B2FEF70EF980
:1021A00020000CF08FFEB9480AF05AF8FEF7F8F854
:1021B000BE480AF055F814A80CF07CFE14AA1000D2
:1021C00021002CC82CC149460A9E0968C8203160EC
:1021D00006F048FA0122012120000CF0E9FFE16835
:1021E000B3480091A36820996268FEF795F9200032
:1021F0000CF068FE0522022120000CF0D9FFE168F6
:10220000AC480091A36820996268FEF785F9200028
:102210000CF058FE0322102120000CF0C9FFE168E9
:10222000A5480091A36820996268FEF775F920001F
:102230000CF048FE7122022120000CF0B9FFE16889
:102240009E48009162682099A368FEF765F9200016
:102250000CF038FEC82006F005FA8C480AF000F8A9
:10226000C82006F0FFF98A4809F0FAFFFEF798F84F
:10227000934809F0F5FF884809F0F2FF14A80CF024
:1022800019FE14AB180021002CC82CC1494609685E
:102290000A96316010A988461CAD08000DF03CFF7D
:1022A000290040464CC84CC1C8208A4606F0DAF9DD
:1022B000002201212800160020972197A2600DF02E
:1022C00031FFAB686A681C9920000CF09DFF01305B
:1022D000414241417B48C9B2FEF770F820000CF042
:1022E000F1FD28000DF0F8FE0122012120000CF084
:1022F00091FE3200AB68012120001C976E600CF04B
:1023000083FF0130414241416F48C9B2FEF756F8A0
:1023100020000CF0D7FD28000DF0DEFE3200AB6887
:1023200001212000209721971C97A6606E600CF079
:102330006BFF0130414241416448C9B2FEF73EF8AB
:1023400020000CF0BFFD28000DF0C6FEAB68320087
:1023500001212000209721971C97E6606E600CF009
:1023600053FF0130414241415948C9B2FEF726F8B6
:1023700020000CF0A7FD28000DF0AEFE0222022185
:1023800020000CF047FE5946AB68320020001C913B
:102390006E600CF039FF0130414241414D48C9B2F5
:1023A000FEF70CF820000CF08DFD28000DF094FED7
:1023B0000522052120000CF02DFE3200AB68002123
:1023C00020001C966E600CF01FFF0130414241411D
:1023D0004148C9B2FDF7F2FF20000CF073FD280060
:1023E0000DF07AFEAB683200002120002096219685
:1023F0001C96A6606E600CF007FF0130414241411F
:102400003648C9B2FDF7DAFF20000CF05BFD28006A
:102410000DF062FEC82006F025F91C4809F020FFE7
:10242000FDF7BEFF214809F01BFF14A80CF042FD88
:102430002100370014AE0DCE0DC149460A9E096831
:10244000404631600DF068FE290040464CC84CC142
:10245000C82006F007F90222022120000CF0DAFD64
:10246000022128000DF0A4FE6A68AB681C992000C8
:102470000CF0CAFE4142414132E0C0467C6E011080
:10248000806E0110846E0110886E0110A06801102A
:1024900080660110906E01101467011040670110F2
:1024A000DC6E0110FC6E01101C6F0110346C011009
:1024B000506901103C6F0110446F01104C6F011006
:1024C000546F0110B46F0110D06F0110EC6F011048
:1024D0000870011024700110487001106C70011018
:1024E000FE48C9B2FDF76AFFE168FD480091A368A4
:1024F00020996268FEF748F920000CF0E3FC280000
:102500000DF0EAFD0422042120000CF083FD0421DB
:1025100028000DF04DFE6A68AB681C9920000CF095
:1025200073FE41424141EF48C9B2FDF747FFE16800
:10253000ED480091A36820996268FEF725F9200014
:102540000CF0C0FC28000DF0C7FD03220221200082
:102550000CF060FD012128000DF02AFE6A68AB68CE
:102560001C9920000CF050FE41424141DF48C9B2A5
:10257000FDF724FFE168DE480091A36820996268B6
:10258000FEF702F920000CF09DFC28000DF0A4FDE0
:102590000922052120000CF03DFD0C2128000DF042
:1025A00007FE6A68AB681C9920000CF02DFE4142C2
:1025B0004141D048C9B2FDF701FFE168CE48009122
:1025C00062682099A368FEF7DFF820000CF07AFC1F
:1025D00028000DF081FD0822022352420321280029
:1025E000209221930DF0E4FD6A68AB681C992000ED
:1025F0000CF00AFE41424141C048C9B2FDF7DEFE7F
:10260000E168BF4800916268A3682099FEF7BCF8B2
:1026100020000CF057FC28000DF05EFDC82006F0ED
:1026200021F8B84809F01CFEC82006F01BF8B6488F
:1026300009F016FEFDF7B4FEB44809F011FEB448E7
:1026400009F00EFE14A9884608000CF033FC28009F
:1026500041464CC94CC0894648465146006808600E
:1026600040460CF027FC210040464CC84CC149466E
:102670000A9E0968C820316005F0F4FF01231C930D
:102680001D93AF6000943A00EB68696801200CF07C
:10269000FDFD0130414241413E00C9B29D48FDF778
:1026A0008DFE28000CF00EFC013F20000CF00AFC0F
:1026B0001D9600941C97EB68AA68696838000CF0B6
:1026C000E5FD0130414241419348C9B2FDF776FE34
:1026D00028000CF0F7FB20000CF0F4FBC82005F0FC
:1026E000C1FF884809F0BCFDFDF75AFE8B4809F090
:1026F000B7FD40460CF0DEFB290040464CC84CC1FB
:102700000068086040460CF0D5FB210040464CC8EC
:102710004CC149460A9E0968C820316005F0A2FFF5
:102720000122012128000CF043FD0095EB68AA6806
:1027300069681C980CF0AAFD414241417848C9B231
:10274000FDF73CFE28000CF0BDFB20000CF0BAFBAE
:102750000222022128000CF02BFD0094AA68EB68ED
:1027600069681C980CF092FD414241416D48C9B224
:10277000FDF724FE01A90C91080021004CC94CC0B2
:102780000A9E834631680160E8681C990090AB6836
:102790006A686548FEF78CF828000CF093FB20006F
:1027A0000CF090FB0622042128000CF001FD00949F
:1027B000AA68EB6869681C980CF068FD41424141C9
:1027C0005A48C9B2FDF7FAFD20000C994CC84CC11B
:1027D00058460A9B19680160E8681C990090AB682C
:1027E0006A685348FEF764F828000CF06BFB200081
:1027F0000CF068FB0722012128000CF0D9FC0094A2
:10280000AA68EB6869681C980CF040FD41424141A0
:102810004848C9B2FDF7D2FD21000C984CC94CC004
:1028200059460A9B18680860E968434800916A683D
:10283000AB681C99FEF73CF828000CF043FB200025
:102840000CF040FBC82005F00DFF2E4809F008FDF4
:10285000C82005F007FF2C4809F002FDFDF7A0FD98
:10286000364809F0FDFC2A4809F0FAFC40460CF015
:1028700021FB210040464CC84CC149460A9B0968CF
:10288000C820196005F0EEFE00220123200016008A
:1028900020932193A2600CF033FD0130414241416D
:1028A0001C48C9B2FDF78AFD20000CF00BFB20008C
:1028B000219620970CF024FD0130414241411648F9
:1028C000C9B2FDF77BFD20000CF0FCFAC82005F032
:1028D000C9FE0C4809F0C4FC32E0C04690700110FB
:1028E000AC700110B8700110D4700110E0700110CC
:1028F000FC70011008710110287101103471011071
:1029000054710110A06801108066011060710110FF
:102910001467011040670110AC710110346C011094
:10292000CC710110E8710110047201100C720110D9
:1029300028720110307201104C7201105472011093
:10294000FDF72EFDFE4809F08BFC40460CF0B2FA74
:10295000210040464CC84CC149460A9B0968C82022
:10296000196005F07FFE0222022120000CF020FCFD
:1029700020000CF0C5FC41424141F248C9B2FDF7CC
:102980001DFDE168F0480091A36820996268FEF798
:1029900029F820000CF096FA0622062120000CF0FF
:1029A00007FC20000CF0ACFC41424141E748C9B2B1
:1029B000FDF704FDE168E6480091A368209962688C
:1029C000FEF710F820000CF07DFA0322022120000F
:1029D0000CF0EEFB20000CF093FC41424141DD483D
:1029E000C9B2FDF7EBFCE168DB4800916268A368BF
:1029F0002099FDF7F7FF20000CF064FAC82005F0DD
:102A000031FED64809F02CFCC82005F02BFED44836
:102A100009F026FCFDF7C4FCD24809F021FCD2489D
:102A200009F01EFC40460CF045FA210040464CC817
:102A30004CC149460A9B0968C820196005F012FE7E
:102A4000012300222093219380231600DB05A2603E
:102A5000200000220CF07CFC013041424141C3487F
:102A6000C9B2FDF7ABFC20000CF02CFA8023002249
:102A7000DB052000219620970CF06AFC01304142D2
:102A80004141BB48C9B2FDF799FC20000CF01AFA8D
:102A9000C82005F0E7FDB14809F0E2FBFDF780FC36
:102AA000A74809F0DDFB40460CF004FA2A00414635
:102AB00049C949C20968404611600CF0FBF922007F
:102AC000414649C949C24A460A9B1268C8201A6051
:102AD00005F0C8FD0222022128000CF069FB0094D9
:102AE0006968AA68EB681C980CF0D0FB0022A14B27
:102AF00028000CF02DFC414241419F48C9B2FDF72E
:102B00005DFC0C9F07233A002100059349C949C287
:102B100059460A9B18680860E96898480091AB68B4
:102B20001C996A68FDF7ECFF28000CF0CBF9200037
:102B30000CF0C8F90322052128000CF039FB0094A1
:102B40006968AA68EB681C980CF0A0FB00228C4B0B
:102B500028000CF0FDFB414241418A48C9B2FDF713
:102B60002DFC03233900200005934CC84CC1584666
:102B70000A9B1A680260E8681C990090AB686A6852
:102B80008148FDF7BDFF28000CF09CF920000CF0F7
:102B900099F906220A2128000CF00AFB00946968C2
:102BA000AA68EB681C980CF071FB0022774B280098
:102BB0000CF0CEFB414241417548C9B2FDF7FEFB26
:102BC0000923380022005B4205934ACA4AC05A468C
:102BD0000A9B002618681060EA681C990092AB688E
:102BE0006A686C48FDF78CFF28000CF06BF9200038
:102BF0000CF068F90822022128000CF0D9FA0094A0
:102C00006968AA68EB681C980CF040FB002200235E
:102C100028000CF09DFB414241415F48C9B2FDF7DD
:102C2000CDFB3900200005960C974CC84CC1584686
:102C30000A9B18AE1A680260E8681C990090AB689D
:102C40006A685648FDF75CFF28000CF03BF920004D
:102C50000CF038F9C82005F005FD404809F000FBEC
:102C6000C82005F0FFFC3E4809F0FAFAFDF798FB92
:102C70004B4809F0F5FA3C4809F0F2FA40460CF0EE
:102C800019F9300042468ACA8AC049460D9009683F
:102C9000016040460CF00EF941468CC98CC50968AC
:102CA000296014AD28000CF005F9210014AD8CCD7D
:102CB0008CC1A9460A9B2D68C8201D6005F0D2FC76
:102CC000012300221CAD189319930121B260280042
:102CD0000132F3600CF09EF969462B00049485CB19
:102CE00085C198461B688A460B60F368B2687168B4
:102CF00018980CF057FB0130414241412948C9B2B4
:102D0000FDF75CFB30000CF0DDF828000CF0DAF881
:102D100020000CF0D7F80122012130000CF07AF9E4
:102D2000012300221C931D93F36069462B00AA60C7
:102D3000049485CB85C151461B680B6034E0C046C6
:102D4000346C0110E8710110047201109C720110C2
:102D5000B8720110C0720110DC720110A06801107D
:102D600080660110E47201101467011040670110C1
:102D7000AC71011000001C403C730110587301102D
:102D800000000840607301107C730110000022C035
:102D900084730110A4730110B0730110CC7301107F
:102DA000D473011028740110B26801237168189857
:102DB0000CF0F8FA013041424141FE48C9B2FDF73A
:102DC000FDFA30000CF07EF828000CF07BF82000B3
:102DD0000CF078F801230022189319931C93F360E8
:102DE0001D9369462B00B260AA60049485CB85C10F
:102DF00051461B6800220B607168012318980CF083
:102E0000D1FA013041424141EB48C9B2FDF7D6FA4F
:102E100030000CF057F828000CF054F820000CF0AB
:102E200051F80122012130000CF0F4F801230022B6
:102E3000189319930121F260280001320CF0EAF88E
:102E400069462B00049485CB85C151461B680B60F5
:102E5000F368B268716818980CF0A4FA0130414226
:102E60004141D648C9B2FDF7A9FA30000CF02AF862
:102E700028000CF027F820000CF024F80122012192
:102E800030000CF0C7F80122012128000CF0C2F834
:102E9000012300221C931D9369462B00EA600494D1
:102EA00085CB85C1514600230B60F368B268716819
:102EB00018980CF077FA013041424141C048C9B23C
:102EC000FDF77CFA30000BF0FDFF28000BF0FAFF55
:102ED00020000BF0F7FF0122012130000CF09AF8DE
:102EE0000122012128000CF095F8012300221893FB
:102EF00019931C931D9369462B00F260EA600494B9
:102F000085CB85C1002351460B60B2687168189863
:102F10000CF048FA013041424141AA48C9B2FDF7DC
:102F20004DFA30000BF0CEFF28000BF0CBFF200055
:102F30000BF0C8FF01210520494218911990012288
:102F4000063128000CF066F86B462900049485C908
:102F500085C3534609681960F368B26871681898A8
:102F60000CF020FA0130414241419748C9B2FDF7C7
:102F700025FA30000BF0A6FF28000BF0A3FF20007D
:102F80000BF0A0FF0422022130000CF043F80423D0
:102F900005211C936A462B00494204941D9183CB62
:102FA00083C252461B681360B268F3687168189850
:102FB0000CF0F8F90130414241418448C9B2FDF7B3
:102FC000FDF930000BF07EFF28000BF07BFF2000A6
:102FD0000BF078FF0423052119931C936A462B00FC
:102FE0004942049418911D9183CB83C252461B68B9
:102FF0001360B268F368716818980CF0D3F9013067
:10300000414241417248C9B2FDF7D8F930000BF096
:1030100059FF28000BF056FF20000BF053FF002251
:10302000052019921C922B006A46049418901D905A
:1030300083CB83C252461B681360F368B268716821
:1030400018980CF0AFF90130414241416148C9B2D2
:10305000FDF7B4F930000BF035FF28000BF032FF1C
:1030600020000BF02FFF0622012130000CF0A0F809
:103070000521092228000CF09BF86A462B000494D5
:1030800083CB83C252461B681360F368B2687168D1
:1030900018980CF087F90130414241414E48C9B2BD
:1030A000FDF78CF930000BF00DFF28000BF00AFF44
:1030B00020000BF007FF0122052130000CF078F80A
:1030C0000521012228000CF073F86A462B000494B5
:1030D00083CB83C252461B681360F368B268716881
:1030E00018980CF05FF90130414241413B48C9B2A8
:1030F000FDF764F930000BF0E5FE28000BF0E2FE6E
:1031000020000BF0DFFE0722052130000CF050F804
:103110000921052228000CF04BF86A462B00049484
:1031200083CB83C252461B681360F368B268716830
:1031300018980CF037F90130414241412848C9B292
:10314000FDF73CF930000BF0BDFE28000BF0BAFE95
:1031500020000BF0B7FEC82005F084FA214809F0E2
:103160007FF8FDF71DF9204809F07AF814AA10003D
:103170000BF0A0FE320014AB83CB83C24B460D9AFA
:103180001B68136014AA10000BF094FE2A0014AB05
:1031900083CB83C24B461B68136014AA10000BF04C
:1031A00089FE220014AB83CB83C24A460A9B126875
:1031B000C8201BE0487401106C7401109074011059
:1031C000B4740110D8740110007501102875011035
:1031D000507501107C750110A4750110D87501108F
:1031E00010760110A0680110346C01101A6005F00F
:1031F00039FA0122012130000BF0DAFF012101220E
:1032000028000BF0D5FF6A462B00049483CB83C2C1
:1032100052461B681360B268F368716818980CF026
:10322000C1F841424141FE48C9B2FDF7C7F8230049
:1032300005AA0D9283CB83C2130091460A9A1068A7
:1032400018602B000C9A83CB83C240465B46006813
:103250001860F36818990093B3687268F148FDF735
:103260000BFD30000BF02EFE28000BF02BFE200093
:103270000BF028FE0322032130000BF099FF0322FC
:10328000032128000BF094FF6B462800049486C8A5
:1032900086C3534600681860B268F368716818986E
:1032A0000CF080F841424141DF48C9B2FDF786F891
:1032B00023000D9886CB86C04B4629000A9A1068D9
:1032C00018600C9B85C985C3404659460068086054
:1032D000F168D6480091B36818997268FDF7CCFC84
:1032E00030000BF0EFFD28000BF0ECFD20000BF0A0
:1032F000E9FD0722032130000BF05AFF03220721CA
:1033000028000BF055FF6946280004948CC88CC136
:10331000514600680860F368B268716818980CF04C
:1033200041F841424141C248C9B2FDF747F8200087
:103330000D9A8AC88AC248460A9B1968016028000B
:103340000C9A8AC88AC24146584609680160F068EA
:1033500018990090B3687268B648FDF78DFC30008C
:103360000BF0B0FD28000BF0ADFD20000BF0AAFD26
:103370000222092130000BF04DFE09220221280013
:103380000BF048FE6846290004948CC98CC0504656
:1033900009680160B268F368716818980CF002F867
:1033A00041424141A448C9B2FDF708F821000D98F7
:1033B0008CC98CC049460A9B1868086029000C9B80
:1033C00085C985C34046594600680860F1689B4836
:1033D0000091B36818997268FDF74EFC30000BF04D
:1033E00071FD28000BF06EFD20000BF06BFD0B2231
:1033F000062130000BF0DCFE06220B2128000BF02A
:10340000D7FE6946280004948CC88CC151460068D8
:103410000860F368B268716818980BF0C3FF414206
:1034200041418748C9B2FCF7C9FF20000D9A8AC8FC
:103430008AC24A460A9B186810602A000C9B83CAFD
:1034400083C340465A4600681060F268189900929B
:10345000B36872687B48FDF70FFC30000BF032FD5B
:1034600028000BF02FFD20000BF02CFD032204217F
:1034700030000BF09DFE0622032128000BF098FE81
:103480006A46049489CD89C24246554612682A602C
:10349000B268F368716818980BF084FF41424141AB
:1034A00005AD6948C9B2FCF789FF0C958CCC8CC579
:1034B0000A9B1CAC1F68A9462F6001AF0D973A000C
:1034C000270029CF29C215000A9792463A685F481B
:1034D0002A60F56818AF00951899B3687268FDF70F
:1034E000CBFB380020AD0BF0EDFC20000BF0EAFC2C
:1034F00028000BF0E7FCC82005F0B4F8544808F0A9
:10350000AFFEC82005F0AEF8524808F0A9FEFCF75F
:1035100047FF514808F0A4FE504808F0A1FE14AA45
:1035200010000BF0C7FC230014AA43CA43C3934600
:103530000A9B12681A6014AA10000BF0BBFC2A0048
:1035400014AB43CB43C25B461B68C8201360904654
:1035500005F088F801230022280016001C931D9313
:103560000121A26001320BF055FD0095E368A268CD
:1035700061681C980BF0B0FF01304142414138486E
:10358000C9B2FCF71BFF20000BF09CFC28000BF0DD
:1035900099FC0122012120000BF03CFD0123209326
:1035A0002193AE600095A268E36861681C980BF0F7
:1035B00093FF0130414241412A48C9B2FCF7FEFE67
:1035C00020000BF07FFC28000BF07CFC01231C93F7
:1035D0001D932093A6602193AE600095E3683200AE
:1035E000616801200BF078FF0130414241411E48E3
:1035F000C9B2FCF7E3FE20000BF064FC28000BF0DE
:1036000061FC0122012120000BF004FD32000123A6
:103610002800013201211C931D93E66026E0C0467C
:1036200048760110687601107476011094760110C6
:10363000A0760110C0760110CC760110EC76011056
:10364000F8760110187701102477011044770110E3
:10365000A0680110806601105077011014670110F6
:1036600028740110487401106C7401100BF0D2FC26
:103670000095E368A26861681C980BF02DFF01308B
:1036800041424141FE48C9B2FCF798FE20000BF0D0
:1036900019FC28000BF016FC0122012120000BF080
:1036A000B9FC2800012201210BF0B4FC0123209376
:1036B0002193EE600095E368A26861681C980BF0A6
:1036C0000BFF013041424141EE48C9B2FCF776FEA2
:1036D00020000BF0F7FB28000BF0F4FB0122012186
:1036E00020000BF097FC2800012201210BF092FC36
:1036F00001231D931C932093E6602193EE600095B7
:10370000A2680023616801200BF0E6FE013041420F
:103710004141DD48C9B2FCF751FE20000BF0D2FB5D
:1037200028000BF0CFFB0121052049421C911D9080
:103730000122280006310BF06DFC0095E368A268B9
:1037400061681C980BF0C8FE013041424141CF48EE
:10375000C9B2FCF733FE20000BF0B4FB28000BF0DD
:10376000B1FB0422022120000BF054FC05210420AF
:10377000009549420E00A268E368209021911C98B0
:1037800061680BF0A9FE013041424141C048C9B215
:10379000FCF714FE20000BF095FB28000BF092FBC9
:1037A00004221C9600951D923000E3682092616807
:1037B000A26821960BF090FE013041424141B5488C
:1037C000C9B2FCF7FBFD20000BF07CFB28000BF0DE
:1037D00079FB0521002200951D921C91E36820923F
:1037E0002191A268616805200BF076FE013041420C
:1037F0004141A948C9B2FCF7E1FD20000BF062FB92
:1038000028000BF05FFB0622012120000BF0D0FC0A
:103810002800092205210BF0CBFC0095E368A26883
:1038200061681C980BF058FE0130414241419B48B1
:10383000C9B2FCF7C3FD20000BF044FB28000BF0DD
:1038400041FB0122052120000BF0B2FC28000122DF
:1038500005210BF0ADFC0095E368A26861681C9837
:103860000BF03AFE0130414241418D48C9B2FCF7AC
:10387000A5FD20000BF026FB28000BF023FB072200
:10388000052120000BF094FC2800052209210BF0F3
:103890008FFC0095A268E36861681C980BF01CFE21
:1038A0000130414241417F48C9B2FCF787FD200009
:1038B0000BF008FB28000BF005FBC82004F0D2FE3B
:1038C000794808F0CDFCFCF76BFD784808F0C8FC9F
:1038D00014A80BF0EFFA380014AB46CB46C0030037
:1038E00058460068186014A80BF0E4FA200014ABE6
:1038F00046CB46C058460A9B0068186014A80BF0D7
:10390000D9FA280014AB46CB46C05B461B6803605F
:10391000C82004F0A7FE0122012138000BF048FC6A
:103920000122012120000BF043FC00956168A26890
:10393000E3681C980BF0AAFC0095BA68FB687968EC
:1039400018980BF0C9FD414241415948C9B2FCF7F2
:1039500035FD2B000C9846CB46C048461B680360DB
:1039600023000D9846CB46C053460A9A106818604B
:10397000FB6818990093BB687A684E48FDF77CF99C
:1039800038000BF09FFA20000BF09CFA28000BF097
:1039900099FA0322032138000BF00AFC03220321C9
:1039A00020000BF005FC00956168A268E3681C9894
:1039B0000BF06CFC0095BA68FB68796818980BF0FE
:1039C0008BFD414241413C48C9B2FCF7F7FC2B005A
:1039D0000C9846CB46C041464B4609681960210009
:1039E0000D9B45C945C351460A9B18680860F96894
:1039F00032480091BB6818997A68FDF73DF93800A4
:103A00000BF060FA20000BF05DFA28000BF05AFA78
:103A10000722032138000BF0CBFB032207212000F3
:103A20000BF0C6FB00956168A268E3681C980BF078
:103A30002DFC0095BA68FB68796818980BF04CFD6E
:103A4000414241411E48C9B2FCF7B8FC29000C981C
:103A50004CC94CC0404649460068086021000D9B97
:103A600045C945C351460A9B18680860F96815485E
:103A70000091BB6818997A68FDF7FEF824E0C0460B
:103A800090740110B4740110D87401100075011005
:103A900028750110507501107C750110A475011076
:103AA000D875011010760110A0680110346C011057
:103AB0004876011068760110747601109476011032
:103AC000A0760110C076011038000BF0FBF9200041
:103AD0000BF0F8F928000BF0F5F902220921380063
:103AE0000BF098FA0922022120000BF093FA0095BE
:103AF0006168A268E3681C980BF0C8FB0095BA687F
:103B0000FB68796818980BF0E7FC41424141FE4898
:103B1000C9B2FCF753FC29000C984CC94CC0404674
:103B200049460068086021000D9B45C945C35146C0
:103B30000A9B18680860F968F4480091BB681899F6
:103B40007A68FDF799F838000BF0BCF920000BF00B
:103B5000B9F928000BF0B6F90B22062138000BF05A
:103B600027FB06220B2120000BF022FB0095616849
:103B7000A268E3681C980BF089FB0095BA68FB68A3
:103B8000796818980BF0A8FC41424141E048C9B25D
:103B9000FCF714FC29000C984CC94CC0404649461F
:103BA0000068086021000D9B45C945C351460A9B2A
:103BB00018680860F968D7480091BB6818997A6856
:103BC000FDF75AF838000BF07DF920000BF07AF978
:103BD00028000BF077F90322042138000BF0E8FAF3
:103BE0000622032120000BF0E3FA00956168A26829
:103BF000E3681C980BF04AFB0095BA68FB6879688B
:103C000018980BF069FC41424141C348C9B2FCF726
:103C1000D5FB29000C984CC94CC0484623000968C4
:103C200001600D9846CB46C050460A9B14AE1B68F7
:103C30000360F868189900907A68BB68B748FDF788
:103C40001BF838000BF03EF920000BF03BF9280080
:103C50000BF038F9C82004F005FDB14808F000FB6E
:103C6000C82004F0FFFCAF4808F0FAFAFCF798FB14
:103C7000AD4808F0F5FAAD4808F0F2FA3000260039
:103C80000BF018F914A80EC80EC65E460A9B3668DB
:103C90001E6014AE30002E000BF00CF914A80EC8F4
:103CA0000EC6584600683060C82004F0DBFC0123D3
:103CB0000022280017001C931D930121A2600132ED
:103CC0001E000BF0A7F9EB6820990093AB686A68B7
:103CD00020000BF067FC0130414241419448C9B2D9
:103CE000FCF76CFB20000BF0EDF828000BF0EAF875
:103CF0000122012120000BF08DF9E8682096219621
:103D0000AF6000906A680023012120000BF04AFC9C
:103D10000130414241418748C9B2FCF74FFB2000C6
:103D20000BF0D0F828000BF0CDF8E868209621962B
:103D30001C96AF601D96A76000906A683B00012149
:103D400020000BF02FFC0130414241417A48C9B2BA
:103D5000FCF734FB20000BF0B5F828000BF0B2F8AC
:103D60000122012120000BF055F928000122012138
:103D70001C961D96E7600BF04DF9E86820990090BD
:103D8000AB686A6820000BF00DFC013041424141F4
:103D90006A48C9B2FCF712FB20000BF093F8280028
:103DA0000BF090F80122012120000BF033F921964D
:103DB0002096EF600097AB686A68012120000BF045
:103DC000F1FB0130414241415D48C9B2FCF7F6FACE
:103DD00020000BF077F828000BF074F80122012185
:103DE00020000BF017F92800012201210BF012F935
:103DF000219620961C96EF601D96E76000976A68F2
:103E0000AB68012120000BF0CDFB01304142414164
:103E10004C48C9B2FCF7D2FA20000BF053F8280046
:103E20000BF050F8052001231D905B422800012271
:103E300005211C930BF0EEF8E86820990090AB6820
:103E40006A6820000BF0AEFB0130414241413E4820
:103E5000C9B2FCF7B3FA20000BF034F828000BF0DD
:103E600031F80422022120000BF0D4F80422E86883
:103E70002092093A00902192AB683E00042117007D
:103E800020006A680BF08EFB0130414241412F480F
:103E9000C9B2FCF793FA20000BF014F828000BF0DD
:103EA00011F80420EA682197209000926A68AB68B4
:103EB0001D90042120001C970BF074FB013041423F
:103EC00041412348C9B2FCF779FA20000AF0FAFF11
:103ED00028000AF0F7FF052320961D96EE6821932F
:103EE00000966A681C930021AB6820000BF05AFB17
:103EF0000130414241411748C9B2FCF75FFA200046
:103F00000AF0E0FF280027E0CC760110EC760110E3
:103F1000F87601101877011024770110447701100A
:103F2000A068011080660110C877011014670110A5
:103F300028740110487401106C7401109074011001
:103F4000B4740110D87401100075011028750110A7
:103F5000507501107C7501100AF0B4FF0622012192
:103F600020000BF025F92800092205210BF020F98B
:103F7000EE6820990096AB686A6820000BF012FB8F
:103F8000013041424141FE48C9B2FCF717FA200016
:103F90000AF098FF28000AF095FF01220521200071
:103FA0000BF006F92800012205210BF001F9EE685B
:103FB00020990096AB686A6820000BF0F3FA013094
:103FC00041424141EF48C9B2FCF7F8F920000AF03C
:103FD00079FF28000AF076FF0722052120000BF068
:103FE000E7F82800052209210BF0E2F8EE68209995
:103FF00000966A68AB6820000BF0D4FA01304142A9
:104000004141E148C9B2FCF7D9F920000AF05AFF52
:1040100028000AF057FFC82004F024FBDB4808F012
:104020001FF9FCF7BDF9DA4818AE08F019F914A821
:104030000AF040FF300014A98CC98CC00F908A464A
:104040000968016014A908000AF034FF210014ABCC
:1040500085CB85C151460A9B0968196014A90800DF
:104060000AF028FF290014AB85CB85C153461B6895
:10407000C8200B6004F0F6FA0122012130000BF099
:1040800097F80122012120000BF092F80095716849
:10409000B268F36818980BF0F9F8E168280000910D
:1040A000A36862681C990BF07DFA41424141B9480E
:1040B000C9B2FCF783F9290005A80C908CC98CC003
:1040C0004246126801A9026022000D91834689CA06
:1040D00089C10A9B0E911A68AF480A60F268189964
:1040E0000092B3687268FCF7C7FD30000AF0EAFE80
:1040F00020000AF0E7FE28000AF0E4FE0322032174
:1041000030000BF055F80322032120000BF050F88B
:1041100000957168B268F36818980BF0B7F8E26818
:10412000280000926268A3681C990BF03BFA414298
:1041300041419A48C9B2FCF741F92A000C9B83CA55
:1041400083C343465A461B68136022000D9989CAEF
:1041500089C10A9B0E981A680260F2681899009249
:10416000B36872688E48FCF787FD30000AF0AAFE3B
:1041700020000AF0A7FE28000AF0A4FE072203216F
:1041800030000BF015F80322072120000BF010F887
:1041900000957168B268F36818980BF077F8E268D8
:1041A000280000926268A3681C990BF0FBF9414259
:1041B00041417C48C9B2FCF701F92A000C9B83CA33
:1041C00083C341465A460968116022000D9989CA85
:1041D00089C10A9B0E981A680260F26818990092C9
:1041E000B36872687048FCF747FD30000AF06AFE59
:1041F00020000AF067FE28000AF064FE022209216E
:1042000030000AF007FF0922022120000AF002FF15
:1042100000957168B268F36818980BF037F8E26897
:10422000280000926268A3681C990BF0BBF9414218
:1042300041415E48C9B2FCF7C1F82A000C9B83CA11
:1042400083C341465A460968116022000D9989CA04
:1042500089C10A9B0E981A680260F2681899009248
:10426000B36872685248FCF707FD30000AF02AFE76
:1042700020000AF027FE28000AF024FE0B22062167
:1042800030000AF095FF06220B2120000AF090FF73
:1042900000957168B268F36818980AF0F7FFE26851
:1042A000280000926268A3681C990BF07BF94142D8
:1042B00041414048C9B2FCF781F82A000C9B83CAEF
:1042C00083C341465A460968116022000D9989CA84
:1042D00089C10A9B0E981A680260F26818990092C8
:1042E000B36872683448FCF7C7FC30000AF0EAFD96
:1042F00020000AF0E7FD28000AF0E4FD0322042173
:1043000030000AF055FF0622032120000AF050FF7A
:1043100000957168B268F36818980AF0B7FFE26810
:10432000280000926268A3681C990BF03BF9414297
:1043300041412248C9B2FCF741F82A000C9B83CACC
:1043400083C341465A460968116022000D9989CA03
:1043500089C10A9B0E9819680160F168184800919C
:10436000B36872681899FCF787FC30000AF0AAFD60
:1043700020000AF0A7FD28000AF0A4FDC82021E0D3
:10438000A4750110D875011010760110A0680110F5
:10439000346C0110487601106876011074760110B3
:1043A00094760110A0760110C0760110CC76011031
:1043B000EC760110F87601101877011024770110BF
:1043C0004477011004F04EF9FE4807F049FFC82079
:1043D00004F048F9FC4807F043FFFBF7E1FFFB4816
:1043E00007F03EFFFA4807F03BFF14A908000AF067
:1043F00061FD310014AA89CA89C151460F98096824
:10440000016014A908000AF055FD210014AA89CA08
:1044100089C151460A9B0968196014A908000AF06D
:1044200049FD290014AA89CA89C152461268C820C8
:104430000A6004F017F9012300221893199301214F
:10444000B26020000132F3600AF0E4FD6946220008
:10445000049589CA89C10A9B89461A680A60F3686B
:10446000B268716818980BF007F901304142414178
:10447000D848C9B2FBF7A2FF30000AF023FD2000A4
:104480000AF020FD28000AF01DFD01220121300064
:104490000AF0C0FD012300221C931D936946A2600F
:1044A0002200E360049589CA89C1494601230B6053
:1044B0001F00B268F368716818980BF0DDF80130DE
:1044C00041424141C448C9B2FBF778FF30000AF0CD
:1044D000F9FC20000AF0F6FC28000AF0F3FC0022A8
:1044E000189719971C971D97B260A2606946220021
:1044F000F760E760049589CA89C1012349460B60CA
:104500000022716818981F000BF0B6F80130414284
:104510004141B248C9B2FBF751FF30000AF0D2FC6A
:1045200020000AF0CFFC28000AF0CCFC0122012177
:1045300030000AF06FFD0022189719970121F260F0
:10454000200001320AF066FD69462200049589CAFE
:1045500089C149460A9B1A680A60F368B2687168A3
:1045600018980BF089F80130414241419C48C9B28A
:10457000FBF724FF30000AF0A5FC20000AF0A2FCA3
:1045800028000AF09FFC0122012130000AF042FDC0
:10459000012300221C931D936946E26022000495CA
:1045A00089CA89C1494600230B60F368B268716803
:1045B00018980BF061F80130414241418948C9B275
:1045C000FBF7FCFE30000AF07DFC20000AF07AFCCC
:1045D00028000AF077FC0122012130000AF01AFDC0
:1045E0000122012120000AF015FD01230022189369
:1045F00019931C93F2601D936946E26022000495B2
:1046000089CA89C1002349460B60B268716818984D
:104610000BF032F80130414241417348C9B2FBF717
:10462000CDFE30000AF04EFC20000AF04BFC2800C2
:104630000AF048FC012149421891063119910522DE
:10464000043920000AF0E6FC69462300049585CB76
:1046500085C149460A9B1B680B60B268F3687168A4
:1046600018980BF009F80130414241415F48C9B246
:10467000FBF7A4FE30000AF025FC20000AF022FC23
:10468000052003236A46210040420495189319909F
:104690001C931D9089C989C24A460A9B19681160FA
:1046A000B268F368716818980AF0E6FF0130414279
:1046B00041414F48C9B2FBF781FE30000AF002FCCD
:1046C00020000AF0FFFB002203231D92694622000E
:1046D00004951C9389CA89C149460A9B1A680A60D5
:1046E000F368B268716818980AF0C6FF0130414259
:1046F00041414048C9B2FBF761FE30000AF0E2FBDD
:1047000020000AF0DFFB002205211C921D912200EF
:104710006946049589CA89C149460A9B1A680A6094
:10472000F368B268716818980AF0A6FF0130414238
:1047300041413148C9B2FBF741FE30000AF0C2FBEB
:1047400020000AF0BFFB0622012130000AF030FDF4
:104750000122012120000AF02BFD69462200049568
:1047600089CA89C149460A9B1A680A60F368B26817
:10477000716818980AF080FF0130414241411F489A
:10478000C9B2FBF71BFE30000AF09CFB20000AF0C8
:1047900099FB0122022130000AF00AFD01220121C9
:1047A00020000AF005FD69462200049589CA89C1E6
:1047B00049460A9B1A680A60F368B26871681898DB
:1047C0001EE0C046A068011080660110407801100C
:1047D0001467011028740110487401106C740110E2
:1047E00090740110B4740110D8740110887801100D
:1047F000B0780110DC780110047901102C790110D7
:104800000AF03AFF013041424141FE48C9B2FBF78C
:10481000D5FD30000AF056FB20000AF053FB0122C0
:10482000022130000AF0C4FC0222012120000AF01B
:10483000BFFC69462200049589CA89C149460A9B82
:104840001A680A60F368B268716818980AF014FF71
:10485000013041424141EC48C9B2FBF7AFFD3000A5
:104860000AF030FB20000AF02DFBC82003F0FAFE0E
:10487000E64807F0F5FCFBF793FDE54807F0F0FC90
:1048800014A908000AF016FB310014AA89CA89C1CC
:1048900051460F980968016014A80AF00BFB21002B
:1048A00014AA89CA89C151460A9B096814A81960CB
:1048B0000AF000FB290014AA89CA89C1524612686D
:1048C000C8200A6003F0CEFE0122012130000AF068
:1048D0006FFC0122012120000AF06AFC69462200D7
:1048E000049589CA89C149460A9B1A680A60B26858
:1048F000F368716818980AF0BFFE41424141C5480B
:10490000C9B2FBF75BFD29000C9B85C985C34246F4
:10491000594612680A6021000D9A89C989C20A9B0A
:104920000E9819680160F168BB480091B368189946
:104930007268FCF7ADFA30000AF0C4FA20000AF001
:10494000C1FA28000AF0BEFA0322032130000AF05F
:104950002FFC0322032120000AF02AFC69462000D4
:1049600004958CC88CC149460A9B18680860B268D7
:10497000F368716818980AF07FFE41424141A748E8
:10498000C9B2FBF71BFD29000C9B85C985C34046B6
:1049900059460068086020000D998CC88CC10A9B9C
:1049A0000E9819680160F1689D480091B3681899E4
:1049B0007268FCF76DFA30000AF084FA20000AF001
:1049C00081FA28000AF07EFA0322072130000AF05B
:1049D000EFFB0322072120000AF0EAFB69462000D2
:1049E00004958CC88CC149460A9B18680860B26857
:1049F000F368716818980AF03FFE414241418948C6
:104A0000C9B2FBF7DBFC29000C9B85C985C3404676
:104A100059460068086021000D9A89C989C20A9B1D
:104A20000E9819680160F1687F480091B368189981
:104A30007268FCF72DFA30000AF044FA20000AF000
:104A400041FA28000AF03EFA0222092130000AF059
:104A5000E1FA0222092120000AF0DCFA694620006E
:104A600004958CC88CC149460A9B18680860B268D6
:104A7000F368716818980AF0FFFD414241416B48A4
:104A8000C9B2FBF79BFC29000C9B85C985C35B461B
:104A90000968196021000D9A89C989C20A9B0E987C
:104AA00019680160F068189900907268B3686048EE
:104AB000FCF7EEF930000AF005FA20000AF002FADD
:104AC00028000AF0FFF9C82003F0CCFD4F4807F09A
:104AD000C7FBC82003F0C6FD564807F0C1FBFBF733
:104AE0005FFC554807F0BCFB14AE544807F0B8FB18
:104AF000300026000AF0DEF914A88AC88AC6564695
:104B00000A9B36681E6014AE30002E000AF0D2F9FF
:104B100014A88AC88AC6504600683060C82003F0CE
:104B2000A1FD01230022280017001C931D930121E1
:104B3000A26001321E00E3600AF06CFAEB68209973
:104B40000093AB686A6820000AF0F8FD013041422A
:104B500041413B48C9B2FBF731FC20000AF0B2F9F1
:104B600028000AF0AFF90122012120000AF052FAD0
:104B700020962196EE60AF6000966A6800230121BE
:104B800020000AF0DBFD0130414241412D48C9B20D
:104B9000FBF714FC20000AF095F928000AF092F9BE
:104BA000209621961C96EE60AF601D96E660A76089
:104BB00000966A683B00012120000AF0BFFD013029
:104BC000414241412048C9B2FBF7F8FB20000AF0FE
:104BD00079F928000AF076F90122012120000AF073
:104BE00019FA2800012201211C961D96E7600AF09F
:104BF00011FAEA6820990092AB686A6820000AF00E
:104C00009DFD23E0587901108C790110A0680110F6
:104C1000346C0110C0790110E0790110EC790110B9
:104C20000C7A0110187A0110387A0110447A0110B8
:104C3000647A011080660110707A01101467011007
:104C400028740110487401106C7401100130414245
:104C50004141FE48C9B2FBF7B1FB20000AF032F92E
:104C600028000AF02FF90122012120000AF0D2F9D0
:104C700021962096EF600097AB686A6801212000BA
:104C80000AF05CFD013041424141F148C9B2FBF7F5
:104C900095FB20000AF016F928000AF013F901220A
:104CA000012120000AF0B6F92800012201210AF0B2
:104CB000B1F9219620961C96EF601D96E76000974B
:104CC000AB686A68012120000AF038FD01304142DA
:104CD0004141E048C9B2FBF771FB20000AF0F2F84D
:104CE00028000AF0EFF801220521524228001C9208
:104CF0001D91063204390AF08DF9EA682099009274
:104D00006A68AB6820000AF019FD01304142414158
:104D1000D148C9B2FBF752FB20000AF0D3F82800B3
:104D20000AF0D0F805200322EB684042219000935E
:104D30002092AB683E001C9217001D906A68032108
:104D400020000AF0FBFC013041424141C348C9B296
:104D5000FBF734FB20000AF0B5F828000AF0B2F89F
:104D6000EA682097219600926A68AB6803212000C8
:104D70001C971D960AF0E2FC013041424141B848BF
:104D8000C9B2FBF71BFB20000AF09CF828000AF0D0
:104D900099F805210B0020961D96EE682193009648
:104DA000AB686A681C91200000210AF0C7FC013042
:104DB00041424141AB48C9B2FBF700FB20000AF079
:104DC00081F828000AF07EF80622012120000AF06E
:104DD000EFF92800012201210AF0EAF9EE68209992
:104DE0000096AB686A6820000AF0A8FC01304142D6
:104DF00041419D48C9B2FBF7E1FA20000AF062F890
:104E000028000AF05FF80122022120000AF0D0F900
:104E10002800012201210AF0CBF9EE6820990096C2
:104E2000AB686A6820000AF089FC013041424141C8
:104E30008E48C9B2FBF7C2FA20000AF043F82800F6
:104E40000AF040F80122022120000AF0B1F92800FE
:104E5000022201210AF0ACF9EE6820990096AB68B5
:104E60006A6820000AF06AFC0130414241418048F2
:104E7000C9B2FBF7A3FA20000AF024F828000AF0D0
:104E800021F8C82003F0EEFB7A4807F0E9F9FBF7B8
:104E900087FA794807F0E4F914A9894618AE0800A2
:104EA0000AF008F8310048468CC88CC10F91824640
:104EB00000680860484609F0FDFF20004A468ACA9B
:104EC0008AC050460A9B00681860484609F0F2FF05
:104ED00028004A468ACA8AC012680260C82003F0C5
:104EE000C1FB0122012130000AF062F901220121F7
:104EF00020000AF05DF900957168B268F3681898AF
:104F00000AF0C4F9E0681C990090A3682800626860
:104F10000AF014FC414241415848C9B2FBF74EFA2D
:104F20002A0005A90D9189CA89C120000E91126835
:104F30000A6001AA0C928AC88AC2100093460A9A93
:104F400013680360F06818990090B36872684C4861
:104F5000FBF79EFF300009F0B5FF200009F0B2FF1B
:104F6000280009F0AFFF0322032130000AF020F9E6
:104F70000322032120000AF01BF900957168B26832
:104F8000F36818980AF082F9E0681C99009062684A
:104F90002800A3680AF0D2FB414241413948C9B216
:104FA000FBF70CFA2B000D9886CB86C040460E9975
:104FB0000068086020000C9A8AC88AC258460A9A7B
:104FC00013680360F06818990090B36872682E48FF
:104FD000FBF75EFF300009F075FF200009F072FF5B
:104FE000280009F06FFF0322072130000AF0E0F8E3
:104FF0000322072120000AF0DBF800957168B268EF
:10500000F36818980AF042F9E0681C990090626809
:105010002800A3680AF092FB414241411B48C9B2F3
:10502000FBF7CCF92B000D9886CB86C040460E9935
:105030000068086020000C9A8AC88AC258460A9AFA
:1050400013680360F0681899009021E090740110D3
:10505000B4740110D874011088780110B078011070
:10506000DC780110047901102C79011058790110B5
:105070008C790110A0680110346C0110C079011006
:10508000E0790110EC7901100C7A0110187A011006
:10509000B3687268FE48FBF7FBFE300009F012FFB0
:1050A000200009F00FFF280009F00CFF022209215F
:1050B000300009F0AFFF02220921200009F0AAFF09
:1050C00000957168B268F36818980AF0DFF8E06834
:1050D0001C990090A368280062680AF02FFB4142E7
:1050E0004141EC48C9B2FBF769F92A000D988ACA18
:1050F0008AC040460E990068086020000C9A8AC851
:105100008AC258460A9A12680260F068189900909C
:10511000B3687268E048FBF7BBFE300009F0D2FECE
:10512000200009F0CFFE280009F0CCFEC82003F0D3
:1051300099FADA4807F094F8C82003F093FAD848AF
:1051400007F08EF8FBF72CF9D64807F089F8D64817
:1051500007F086F8484609F0ADFE20004A468ACAA4
:105160008AC050460A9A00681060484609F0A2FEBC
:1051700028004A468ACA8AC012680260C82003F022
:1051800071FA0123002228001C931D931700A260CE
:1051900001210132E36009F03DFFE86820990090A9
:1051A000AB686A6820000AF013FB013041424141BC
:1051B000BE48C9B2FBF702F9200009F083FE2800BF
:1051C00009F080FE01220121200009F023FF0123C4
:1051D00020932193EB60AF6000936A681F00012168
:1051E000002320000AF0F4FA013041424141B04866
:1051F000C9B2FBF7E3F8200009F064FE280009F0CB
:1052000061FE0022209721971C97EF60AA601D97EE
:10521000E760A26000976A680023012120000AF07D
:10522000D7FA013041424141A248C9B2FBF7C6F862
:10523000200009F047FE280009F044FE0122012168
:10524000200009F0E7FE002228001C971D9701218D
:105250001700E260013209F0DDFEE8682099009055
:10526000AB686A6820000AF0B3FA0130414241415C
:105270009148C9B2FBF7A2F8200009F023FE2800EC
:1052800009F020FE01220121200009F0C3FE0123C4
:1052900020932193EF600097AB686A68012120009A
:1052A0000AF096FA0130414241418448C9B2FBF705
:1052B00085F8200009F006FE280009F003FE01220F
:1052C0000121200009F0A6FE28000122012109F099
:1052D000A1FE0123209321931C93EF601D93E760AF
:1052E0000097AB686A68012120000AF071FA01306A
:1052F000414241417248C9B2FBF760F8200009F011
:10530000E1FD280009F0DEFD012149421C91063132
:1053100028001D910522043909F07CFEE8682099D7
:1053200000906A68AB6820000AF052FA01304142EE
:1053300041416448C9B2FBF741F8200009F0C2FDC1
:10534000280009F0BFFD05200323404221901D9055
:10535000E868209300906A681F001C930321AB68E3
:1053600020000AF035FA0130414241415648C9B2A5
:10537000FBF724F8200009F0A5FD280009F0A2FDA4
:105380000022E868209700902192AB681C971D923C
:10539000170003216A6820000AF01AFA013041421E
:1053A00041414A48C9B2FBF709F8200009F08AFDDB
:1053B000280009F087FD05210800EB68209721905F
:1053C0000093AB686A681C91200000211D970AF0C9
:1053D000FFF90130414241413D48C9B2FAF7EEFFC1
:1053E000200009F06FFD280009F06CFD0622012164
:1053F000200009F0DDFE28000122012109F0D8FE7D
:10540000EB6820990093AB686A6820000AF0E0F925
:105410000130414241412F48C9B2FAF7CFFF200085
:1054200009F050FD280009F04DFD01220221200065
:1054300009F0BEFE28000122012109F0B9FEEB6847
:1054400020990093AB686A6820000AF0C1F9013026
:10545000414241412048C9B2FAF7B0FF200009F0AB
:1054600031FD280009F02EFD01220221200009F063
:105470009FFE28000222012109F09AFEEB68209984
:1054800000936A68AB6820000AF0A2F926E0C046E3
:10549000387A0110447A0110647A0110A068011072
:1054A00080660110D07A0110146701102874011071
:1054B000487401106C74011090740110B4740110E0
:1054C000D8740110387B0110607B01108C7B0110B7
:1054D000B47B0110DC7B0110087C011001304142DB
:1054E0004141FD48C9B2FAF769FF200009F0EAFC22
:1054F000280009F0E7FCC82003F0B4F8F74806F0EC
:10550000AFFEFAF74DFFF64806F0AAFE484609F04E
:10551000D1FC3300484686C886C351460F9B0968B4
:105520004846196009F0C6FC2300494685C985C371
:1055300053460A9A1B684846136009F0BBFC2B00CF
:10554000494685C985C30968C820196003F08AF8EF
:1055500001220121300009F02BFE0122012120004F
:1055600009F026FE00957168B268F368189809F092
:105570008DFEE368280000936268A3681C990AF016
:1055800027F941424141D748C9B2FAF717FF28002D
:105590000D9B86C886C343460E991B680B6023008B
:1055A0000C9A83CB83C25B460A9A10681860F36832
:1055B00018990093B3687268CB48FBF71BFD300065
:1055C00009F080FC200009F07DFC280009F07AFC3D
:1055D00003220321300009F0EBFD03220321200008
:1055E00009F0E6FD00957168B268F368189809F053
:1055F0004DFEE368280000936268A3681C990AF0D6
:10560000E7F841424141B948C9B2FAF7D7FE28004C
:105610000D9B86C886C30E990068086020000C9A0E
:105620008AC88AC258460A9A13680360F0681899B3
:105630000090B3687268AE48FBF7DCFC300009F0FC
:1056400041FC200009F03EFC280009F03BFC03224D
:105650000721300009F0ACFD03220721200009F0EA
:10566000A7FD00957168B268F368189809F00EFEFE
:10567000E0681C99009062682800A3680AF0A8F806
:10568000414241419B48C9B2FAF798FE28000D9B60
:1056900086C886C30E990068086020000C9A8AC8E4
:1056A0008AC258460A9A12680260F06818990090F7
:1056B000B36872689048FBF79DFC300009F002FC6B
:1056C000200009F0FFFB280009F0FCFB0222092161
:1056D000300009F09FFC02220921200009F09AFC09
:1056E00000957168B268F368189809F0CFFDE0681A
:1056F0001C99009062682800A3680AF069F841428A
:1057000041417E48C9B2FAF759FE28000D9B86C870
:1057100086C343460E991B680B6023000C9985CB0A
:1057200085C15B460A9A764811681960F368189932
:1057300000937268B368FBF75DFC300009F0C2FBB0
:10574000200009F0BFFB280009F0BCFBC82002F0D4
:1057500089FF624806F084FDC82002F083FF694893
:1057600006F07EFDFAF71CFE674806F079FD6748F3
:1057700006F076FD484609F09DFB26004B4683CB9C
:1057800083C656460A9A36684846166009F092FB68
:105790002E004B4683CB83C61B68C820336002F0C3
:1057A00061FF0123002228001C931D931700A260B3
:1057B000012101321E00E36009F02CFC0095E36832
:1057C000A26861681C980AF04DF8013041424141DD
:1057D0004F48C9B2FAF7F2FD200009F073FB280028
:1057E00009F070FB01220121200009F013FC3A00AE
:1057F0002800013201211C961D96E76009F00AFC81
:105800000095A268E36861681C980AF02BF80130E3
:10581000414241413F48C9B2FAF7D0FD200009F0AA
:1058200051FB280009F04EFB0120404201000631E7
:1058300000951D911C90A268E36861680AF012F857
:105840000130414241413448C9B2FAF7B7FD200066
:1058500009F038FB280009F035FB052203235242EA
:1058600000951C931D92A2683E0061681F000320F2
:10587000E36809F0F7FF0130414241412748C9B2CE
:10588000FAF79CFD200009F01DFB280009F01AFB27
:1058900000951C971D96A268E3686168032009F0D3
:1058A000E1FF0130414241411D48C9B2FAF786FD8E
:1058B000200009F007FB280009F004FB05210095F2
:1058C0001D961C91A268E3686168052009F0CAFF73
:1058D00001304142414125E03C7C0110A0680110AB
:1058E000346C0110707C0110907C01109C7C0110C4
:1058F000BC7C0110C87C0110E87C0110F47C011014
:10590000147D011080660110207D011014670110C4
:105910002874011090740110707D0110947D0110A5
:10592000B87D0110FE4EC9B23000FAF747FD2000E5
:1059300009F0C8FA280009F0C5FAC82002F092FE62
:10594000F84806F08DFCFAF72BFDF74806F088FCC6
:10595000484609F0AFFA2300484686C886C3534636
:105960000A9A1B684846136009F0A4FA2B004846BF
:1059700086C886C300681860C82002F073FE012242
:105980000121200009F014FC0095A268E368616819
:105990001C9809F067FF41424141E448C9B2FAF757
:1059A0000DFD28000C9B86C886C3424658461268E7
:1059B0000260E0681C990090A3686268DC48FBF70D
:1059C000C5FB200009F07EFA280009F07BFA0322CB
:1059D0000321200009F0ECFB0095A268E3686168F0
:1059E0001C9809F03FFF41424141D248C9B2FAF741
:1059F000E5FC28000C9B86C886C3424658461268C0
:105A00000260E0681C990090A3686268CA48FBF7CE
:105A10009DFB200009F056FA280009F053FA0322F2
:105A20000721200009F0C4FB0095E368A2686168C3
:105A30001C9809F017FF41424141C048C9B2FAF72A
:105A4000BDFC2A000C988ACA8AC040465A460068A3
:105A50001060E2681C990092A3686268B848FBF77E
:105A600075FB200009F02EFA280009F02BFA02221B
:105A70000921200009F0CEFA0095A268E368616868
:105A80001C9809F0EFFE41424141AE48C9B2FAF715
:105A900095FC28000C9B86C886C35B46006818608E
:105AA000E3681C9900936268A368A748FBF74EFB64
:105AB000200009F007FA280009F004FAC82002F0D3
:105AC000D1FD984806F0CCFBC82002F0CBFD9F48E2
:105AD00006F0C6FBFAF764FC9D4806F0C1FB9D4842
