:020000041000EA
:1000000000B5324B212058609868022188439860DF
:10001000D860186158612E4B002199600221596106
:100020000121F02299502B49196001219960352056
:1000300000F044F80222904214D00621196600F024
:1000400034F8196E01211966002018661A6600F04E
:100050002CF8196E196E196E052000F02FF8012189
:100060000842F9D1002199601B49196000215960AB
:100070001A491B48016001219960EB211966A021F2
:10008000196600F012F800219960164914480160C1
:100090000121996001BC002800D000471248134993
:1000A000086003C880F30888084703B5996A0420EC
:1000B0000142FBD001200142F8D103BD02B5186610
:1000C0001866FFF7F2FF186E186E02BD00000240BE
:1000D000000000180000070000035F00212200005C
:1000E000F4000018222000A00001001008ED00E03C
:1000F00000000000000000000000000074B24E7A12
:1001000000200420F7010010C3010010C5010010F9
:10011000C1010010C1010010C1010010C101001097
:10012000C1010010C1010010C1010010C701001081
:10013000C1010010C1010010C9010010CB01001065
:10014000CD010010CD010010CD010010CD01001037
:10015000CD010010CD010010CD010010CD01001027
:10016000CD010010CD010010CD010010CD01001017
:10017000CD010010CD010010CD010010CD01001007
:10018000CD010010CD010010CD010010CD010010F7
:10019000CD010010CD010010CD010010CD010010E7
:1001A000CD010010CD010010CD010010CD010010D7
:1001B000CD010010CD010010CD010010CD010010C7
:1001C00000BE00BE00BE00BE00BE00BE00F04BF888
:1001D000103800BEF2EB8871A8100110D010011089
:1001E0003402001090A31AE700202149086006C8D5
:1001F00081F3088810471F48006800282FD10DA4FC
:100200000ECC002902D000F012F8F9E71A491B4A77
:10021000002000E001C19142FCD1194988471949E9
:1002200088471949884700BEFDE701C901C29A42C3
:10023000FBD37047D0100110C0000020680E0020D2
:10024000781E01100000042000000420781E011018
:1002500000100420001004200000000070470B482C
:1002600003F084FD0047EFF30580C0B27047000043
:1002700008ED00E0000000D0680E002010220020F1
:10028000ED2000105D0300101522001057560000ED
:1002900006005250ABB360539CEA00100600525067
:1002A000861C0302ACEA0010060052505422A29DA4
:1002B000B8EA001005005250DE65F468781E01109F
:1002C000F8B5C0460448054B10B5834203D0044B33
:1002D000002B00D0984710BD680E0020680E00204B
:1002E0000000000006480749091A8910CB0F591869
:1002F00010B5491003D0044B002B00D0984710BD17
:10030000680E0020680E00200000000010B5074CA9
:100310002378002B09D1FFF7D5FF054B002B02D026
:10032000044800E000BF0123237010BD58120020D4
:100330000000000088E60010054B10B5002B03D02C
:100340000449054800E000BFFFF7CCFF10BDC046E0
:10035000000000005C12002088E60010F0B5D646D0
:100360004F464646C0B59EB005F088FDFA20C00055
:1003700001F096F95E4805F097FC5E4D5E49280055
:1003800008F030FB0321042000F000FA03210520CF
:1003900000F0FCF90022012104200EAC00F00EFA5E
:1003A00000220121052000F009FA200008F03AFFA0
:1003B0000123E3616361002323638833A384302234
:1003C000403312A968466560A36105F0B7FAE36897
:1003D0006168A2680E980AF0EDF9FA20400001F079
:1003E0005FF9464D10A93822684605F0A7FA636800
:1003F0000E9A280009F016F8414B0122042116201C
:1004000000F0F4F93F4805F04FFC642001F048F992
:100410003D4805F027FD3D4805F024FD3C4805F02A
:1004200021FD3C4805F01EFD3B4805F01BFD3B4807
:1004300005F018FD3A4805F015FD3A4805F012FDA3
:10044000394805F00FFD394805F00CFD384805F036
:1004500009FD384805F028FC374B2F009A469023B9
:100460009946083398460026344CA944A844A0373E
:100470000D2005F0C7FB4B4620001A685B6805F0AD
:10048000F1FC434620001A685B6805F0EBFC3A6813
:100490007B68200005F0E6FC2A686B68200005F008
:1004A000E1FCAA68EB68200005F0DCFC2A696B69B6
:1004B000200005F0D7FCAA69EB69200005F0D2FC0A
:1004C0002A6A6B6A200005F0CDFCAA6AEB6A20005C
:1004D00005F0C8FCAA6CEB6C200005F0C3FC3100F1
:1004E000504605F0BFFC6420013601F0D9F8BFE7A3
:1004F0009CE60010E0050020801A06004011002054
:1005000085AE0010ACE60010C0E60010CCE600108E
:10051000D8E60010E4E60010F0E60010FCE600105B
:1005200008E7001014E7001020E700102CE7001087
:1005300038E7001044E7001054E7001048E70010C7
:10054000D0231B061B68F0B59A00454690464146ED
:100550008A4ADE465258574693465A1E93413022E5
:100560004E465B421A40864B00249C46854BE0B5C4
:100570009A4683B062440092E208130026000833D2
:1005800000999B005D580836002D24D0A64224D93E
:100590005B46002B2AD001230F27994639002940BA
:1005A00013D04B4652464046A34012581A420CD133
:1005B000072208002240920090400200E30872489F
:1005C0003C339B001A502000D8472D090134002DE0
:1005D00001D0A642E2D8202E01D03400CCE703B0EF
:1005E0003CBC90469946A246AB46F0BD0F232B403B
:1005F00007D001214746A1406248C059084200D1B6
:10060000A8E02B09611C002BE5D08E42E3D90F2214
:1006100013406BD12B0AA11C002BDCD08E42DAD9FF
:100620000F22134073D12B0BE11C002BD3D08E4231
:10063000D1D90F2213407BD12B0C211D002BCAD006
:100640008E42C8D90F2213400FD047460E3A8A4037
:100650004C48C059104208D10720CA0801408900FF
:100660008B403C324849920053502B0D611D002BAA
:10067000B1D08E42AFD90F22134006D047460E3A72
:100680008A404048C05910426DD02B0EA11D002B4E
:10069000A1D08E429FD90F2213400FD047460E3A69
:1006A0008A403848C059104208D10720CA08014082
:1006B00089008B403C323449920053502D0F07344F
:1006C000002D00D187E701234146A3402D4A52580F
:1006D00001921A4200D07EE70722E3081440A400EA
:1006E000A5403C33284A9B009D5074E747460E3A8C
:1006F0008A402448C05910428CD10720CA080140C2
:1007000089008B403C3220499200535082E7474693
:100710000E3A8A401B48C059104284D10720CA08AB
:10072000014089008B403C321749920053507AE7D0
:1007300047460E3A8A401348C059104200D07BE722
:100740000720CA08014089008B403C320E499200C4
:10075000535071E70721214089008B403C320A4900
:10076000920053504DE70720CA08014089008B4092
:100770003C3205499200535087E7C046241A0020B6
:1007800000410140F81E002000400140094A83005A
:1007900094464022634410B51C68C0006240C024E7
:1007A00014408022520113431C60034B9C4660445A
:1007B000416010BD04C00140004001400A4B800070
:1007C0009C4604236044002901D00C230821002A00
:1007D00000D10B00026853400C221A4080235B01B9
:1007E000184302607047C04604C00140F8B51D00C0
:1007F000D0231B061B6814005A1E934130225B4213
:100800001340214AC60894460722024092009140B4
:1008100032001E483C3263449200B60011509B19CE
:10082000002C11D08022920113431960D0231B06A3
:100830001E68174FB600BB59002B11D0002D1ED0DB
:10084000BD51002C16D1F8BDC0229201134319608E
:10085000D0231B061E680E4FB600BB59002BEDD1EE
:10086000002DEED000220B490D20BD5100F018F9EB
:10087000002CE8D001210D2000F0B0F8E3E7054995
:100880000D2000F0F1F9DBE700410140004001409C
:10089000241A002041050010F8B5EFF3108772B656
:1008A0000D4E3368002BFCD0BFF35F8F0725CB08BC
:1008B000C01801230D40AB401D000478254007D12E
:1008C00023430370BFF35F8F356087F31088F8BD53
:1008D000100001F0A1FCC0462C0100D0F8B5CE46B6
:1008E00047468C4680B5EFF3108872B6214D2C68D0
:1008F000002CFCD0BFF35F8F9A422CD80721012532
:1009000011408D40D4080419267835421FD00721A4
:100910008946063909E04D460F001540AF40D4081E
:10092000041926783D00374211D001329342F2D2A9
:1009300001204042BFF35F8F00220E4B1A6088F304
:10094000108800280FDB0CBC90469946F8BD354353
:1009500025701000EEE7BFF35F8F00232B6088F354
:100960001088012040426346002BECD0089801F02B
:1009700053FCC0462C0100D0024B18688007C00F02
:100980007047C04600C006400021044B044ABFF334
:100990005F8F02C39342FAD17047C046000100D076
:1009A000800100D0044A1078431CDBB2172B00D919
:1009B000102313707047C0460005002000B5054B9A
:1009C00083B00100009318221F230348FFF786FF1E
:1009D00003B000BD88E700102C1A002001238340DB
:1009E000002904D0034A1360034A13607047034A86
:1009F0001360FBE780E200E000E100E080E100E05E
:100A000001238340014A13607047C04600E200E0C2
:100A1000084B10309B688000C358002B07D0064A53
:100A200000209B1A2F229A424041C0B270470020FA
:100A3000FCE7C04600ED00E004050020024B10304A
:100A40009B688000C058704700ED00E070B50D0055
:100A5000EFF3108672B60F4A1368002BFCD0BFF379
:100A60005F8F0D4B10309B6884001B590B4A9342DB
:100A700003D09D4201D001F0E7FB074B9B681D515D
:100A8000BFF35F8FBFF35F8F0022024B1A6086F3C4
:100A9000108870BD240100D000ED00E0CD010010F1
:100AA000F8B557464546DE464E468A46E0B590467E
:100AB0000700EFF3108972B6604A1368002BFCD070
:100AC000BFF35F8F00205E4B18569B46002800DA6C
:100AD000A2E05A4644005B4D2418A4002E19B379B5
:100AE00010371370584BBA009B68934699584B1BAC
:100AF0002F2B41D801230A009A43D37994464345CA
:100B000014D90627D7571300002F06DA8DE00627E1
:100B1000DF571A00002F00DA87E07B00DB199B000B
:100B2000EB18DF794745F2D8002A51D1474A63468E
:100B30005B1B5B415A43120D454BA11C3380454B57
:100B40006918043B5B1A1B0543495B0D0B4373801B
:100B500063460434043B2D195D1B43462D05F37198
:100B60006D0D53462943B180B27101216246B360D5
:100B70003A4B3143136018E0394B994252D1344B10
:100B800002343380334B2D19043B5D1B2D05324B52
:100B90006D0D1D43334B0121B380FF23B3714346D9
:100BA000F37153467580B36031435A46264B9B68B8
:100BB0009950BFF35F8FBFF35F8F00221F4B1A6006
:100BC00089F310883CBC90469946A246AB46F8BDD6
:100BD0000627D757131D9C46002F2CDB04342D19F4
:100BE000E024938824025B051B1563445B1B1B05F3
:100BF0005B0D23436546341F641B2405164D640DAD
:100C00002C4394809071B3804346F3715346134A4A
:100C1000B7713260B360C8E701F016FB5B46002095
:100C2000185656E701F010FBA9E71A1D94461A0062
:100C3000BD231B02DEE7BD231B02DBE7240100D03E
:100C4000481F00200405002000ED00E0AAAA0000D3
:100C500000A1FFFF3405002000E0FFFF01488047AE
:100C6000CD01001000BDFFFFF0B54546DE465746FA
:100C70004E46E0B50D0083B0EFF3108A72B65A4AC3
:100C80001368002BFCD0BFF35F8F10229146814484
:100C90004A46564B96009B689C59554B98469C4239
:100CA00005D0AC4216D0534FE31B2F2B14D94F4B1A
:100CB0009B689C51BFF35F8FBFF35F8F00224A4B4D
:100CC0001A608AF3108803B03CBC90469946A2464D
:100CD000AB46F0BD1C00EAE7012383409B465A4621
:100CE000454B1B681A4000925A46444B1A60BFF3AA
:100CF0005F8FFFF7B8FA0190002803D0814501D03B
:100D000001F0A2FA0123220006219A43936851566A
:100D10009D420AD152E04B005B1806219B00FB1854
:100D200098685956A8420FD01A000029F3DA009BA0
:100D3000002B05D05A46324B1A602F4B1A60B6E78B
:100D40005A462E4B1A60B2E7002921DB4A005018A0
:100D500080003D188046A8689860E879D871062020
:100D600028569871002826DBAD88F81A6D052D15D8
:100D700045444019E0250005400D2D022843988088
:100D80005218204B9200BF181A781970BA71CEE72A
:100D90000199002918D1002A23D0FF3191711A49F5
:100DA000918018490A789A71184ADB1B5B415A43B3
:100DB000120D0A70BBE7BD200002E0E71300002916
:100DC000C4DA019A002A0CD0114A1249D21A083A00
:100DD0005002400D014399800F4952080A43DA80BE
:100DE000A5E74446DDE7C046240100D000ED00E061
:100DF000CD0100100405002000E100E080E100E0EA
:100E000080E200E0481F002000BDFFFFAAAA00000A
:100E10003E05002000F0FFFF00F8FFFFF8B50125B8
:100E200004000543FFF71FFAEFF3108672B6214A5C
:100E30001368002BFCD0BFF35F8F1F4B1F4A2100AC
:100E4000C91A49414A43120D1D4980008F6852B2A8
:100E50003F58AF421CD00621595691421CD0122156
:100E60005956914222D01E215956914220D02A2112
:100E700059560320914210D0124B19781A70A17163
:100E8000BFF35F8F00220B4B1A6086F31088F8BD0A
:100E90008B680D491950EFE70020410009188900BF
:100EA0005B18FF21997109499980E5E70120F4E772
:100EB0000220F2E7240100D004050020AAAA0000C5
:100EC00000ED00E0481F0020CD01001000BDFFFF35
:100ED000054B064A1360064A136053609360D36063
:100EE00013615361936170478080808000E400E06B
:100EF00004E400E0D02300B51B0601001868074B8E
:100F000083B01818064B002200930523FFF7E6FC78
:100F1000002801DB1F23181A03B000BD3C1F00206E
:100F2000A4E70010024B9C466144890001607047B1
:100F30004000003483680B4810B584466144624425
:100F4000090112019A18591854684B6801209C42F3
:100F500001D802D00020C0B210BD12680B689A42BE
:100F6000F9D8F7E7FFFFFF0F0A4B1968EFF310807E
:100F700072B60A68002AFCD0BFF35F8F1B68BFF30C
:100F80005F8F00221A6080F3108840BF002000218C
:100F90007047C0460C1F0020F8B5454657464E46E0
:100FA000DE46E0B514000DAA12781D000CAB924687
:100FB0001B78026881469046002B13D1977B002F47
:100FC0004AD040467E001268F619033E92195178C5
:100FD0003B008173002900D1C173002191705170D1
:100FE000117003E01F005E00F618033E2E4A94467F
:100FF0004A469268634494461B010A9A63449A6085
:101000000B9A1C605D60DA60434600221B689B19E6
:101010009A705A701A7043465B7B9B46002B2BD00C
:1010200043463A00986859465B6898475B46424693
:101030005B005B44033B1268002814D0D318961958
:101040005A46B2701A78002A00D072701F705A4641
:1010500043465A73BB4511D038003CBC9046994674
:10106000A246AB46F8BDD31896199F703278002A75
:1010700000D05A705B46337043465F734B46220084
:10108000187D2B0000F04AFC041E07D05346002BAD
:1010900004D14B463900186800F0BEFF0E9B002BB0
:1010A000DAD01C70D8E7C046FFFFFF0FF0B5DE4670
:1010B00057464E4645460023E0B58DB00A936D4B2A
:1010C0008200D45800239B460B9000F095FB626889
:1010D000EFF3108572B61368002BFCD0BFF35F8F5F
:1010E00023689C465B7B9946002B00D16BE0A2688D
:1010F000614B90464B441B01984443461E685F6811
:1011000032003B00121A8B41002B65DD3B003200A0
:101110000B9800F003FC002300220892099300239F
:1011200000279A466368BFF35F8F5A461A6085F3BB
:1011300010885346002B08D10028C6D10DB03CBC06
:1011400090469946A246AB46F0BD0A9B390018026C
:101150004B461843D047626806900791EFF310881A
:1011600072B6564645461368002BFCD0B246A846D8
:10117000BFF35F8F0699079A131E49DB194302D00C
:101180002369002B5FD12368DA7B002A07D0510046
:101190008A1819688C4649466244033A51704A4697
:1011A000DA73E2684B469446013B63441A78013295
:1011B0001A705B4623616368BFF35F8F5A461A60FB
:1011C00088F3108881E70023002208920993002306
:1011D00000279A460020A5E7002B01D1002A95D1CF
:1011E0000021604600F03AFE43461A685B680892A8
:1011F000099343469B689A464346DF68E3684B443D
:10120000013B1B780A931B0203432361002089E7FB
:101210002369002BB7D0089D099E6D1A96412A00BC
:101220003300089D099E9E4218D81BD05946049150
:1012300001210391494602915146019700912000F6
:10124000FFF7AAFEB5E700F0D7FA069A079B121837
:101250004B41994202D8E9D19042E7D9012252424A
:10126000D317E3E708999142E0D901225242D317FC
:10127000DCE7C046E81E0020FFFFFF0F10B5124C50
:101280006368002B04D00A211048FFF74BFE10BD05
:1012900023000F4A1021206800F002FC032000F018
:1012A0009FFA032000F0AEFB0A49032000F0F0FA99
:1012B000FFF778FB084B9C46032360442375074BDC
:1012C00080006060DC60DEE74C0500200C1F002021
:1012D000350F0010AD10001040000034E81E002053
:1012E000004870474C050020F0B557464546DE469D
:1012F0004E46E0B585B00092019310AB1B780027F5
:101300000393002380469A4643465A68EFF31089B8
:1013100072B61368002BFCD0BFF35F8F43461D6885
:10132000AC7B002C4FD0660036192B68033E9B190E
:101330005A78AA73002A00D1EA7342469F705F7000
:101340001F7092684E4B94460099019AE3181B0156
:10135000634419605A600E9A9A600F9ADA602B689B
:101360009B199F705F701F706B7B9B46002B42D058
:1013700022001900A8686B6898475B465B005B44D5
:10138000033B2A6800282DD0D31896195A46B2700C
:101390001A78002A00D072701C705B466B735C4533
:1013A0002AD04346DB681B19013B187843465B682B
:1013B000BFF35F8F1F6089F310885346002B2AD13B
:1013C0000002204307E05B68BFF35F8F1C6089F376
:1013D00010880120404205B03CBC90469946A24688
:1013E000AB46F0BDD31896199C703278002A00D015
:1013F0005A705B4633706C734346187D009A019BAC
:1014000000F08CFA82460028CBD0434621001868B1
:1014100000F002FEC5E7039B002B2FD00E9B0F9917
:101420000020984703000B4328D004000D1E0DDA5E
:101430000098019902000B00121BAB41994213D88E
:1014400018D000920193039B9A465DE700F0D4F90F
:1014500024184D4123002C0000930194A94203D885
:10146000F1D1009B9842EED901235B42DC17009337
:101470000194E8E700999142E3D9F5E70020AAE753
:10148000FFFFFF0FF8B542680400EFF3108572B656
:101490001368002BFCD0BFF35F8FFF232068CEB210
:1014A000427B0B40B24208D007685A00BC46D218B3
:1014B0006244033A9278002A11D0E268090A9446FD
:1014C0006344013B1B78C9B28B420ED00020636895
:1014D000BFF35F8F00221A6085F31088F8BD23697F
:1014E0008B42F3D122610020F1E7310000F094FD3E
:1014F000EDE7C046F0B504000D0006267642F7176A
:10150000C64636196F4100B584B08F4214D811D049
:1015100000F072F932003B00121A8B41002B15DCEF
:10152000002B3ED02000290000F0A2F904B004BC3A
:101530009046F0BD8642EBD90026002700F05CF90A
:1015400032003B00121A8B41002BE9DD002302938D
:101550000193154B3200009314483B00FFF7C4FE83
:101560000028DFDB00239846BC46114A114F7B6AF6
:101570009C4504D8B96AB142D4D29C45D2D11168F5
:10158000EFF3108072B60B68002BFCD0BFF35F8FB7
:101590001368BFF35F8F4146196080F3108820BF46
:1015A000E5E7002ABED0D1E7690F00104C05002006
:1015B0000C1F002000400540F0B5C64600B584B0C1
:1015C00004000D0000F018F924184D41A9421DD85F
:1015D0001AD006267642F71736196F41AF4251D915
:1015E0000026002700F008F932003B00121A8B4158
:1015F000002B19DC002B42D02000290000F038F924
:1016000004B004BC9046F0BDA042E2D90726764261
:10161000F71700F0F1F832003B00121A8B41012459
:101620006442E517002BE5DD002302930193184B7C
:101630003200009317483B00FFF756FE0028DBDB23
:101640000023BC4698461449144A4B6A9C4504D86A
:10165000886AB042D0D29C45CED11068EFF3108397
:1016600072B60768002FFCD0BFF35F8F1068BFF31E
:101670005F8F4746076083F3108820BFE5E7002AA5
:10168000BAD0D1E7AF42ADD1A642A9D8AAE7C046A9
:10169000690F00104C050020004005400C1F002081
:1016A00070B5060000F0A8F8FA2204000D009200C0
:1016B00000233000002104F04FF8001969418D42E9
:1016C00005D802D0FFF716FF70BD8442FAD9012079
:1016D0004042C117F6E7C046002370B584B0114EF2
:1016E00002930193104B0500009302000B003000A1
:1016F0000C00FFF7F9FD002804DD20BF01003000D9
:10170000FFF7C0FE094A0020536AA34203D3926A3E
:101710000130AA4201D304B070BD1C1B601E84417D
:10172000E0B2F8E74C050020690F001000400540CA
:10173000F0B5C64600B5EFF305833F22134018000D
:101740001038EFF3108772B61F4D2A68002AFCD0BC
:10175000BFF35F8F012211008140884644461B4938
:101760004C631B4C2678A4463400C440224015D05C
:101770004C6A1849820051588C4217D3164BD258E4
:1017800043469E4363461E70BFF35F8F00232B606A
:1017900087F31088002A06D0904704E0BFF35F8FDC
:1017A0002A6087F3108804BC9046F0BD0B4A9B006A
:1017B000944663441A681A60BFF35F8F00232B605E
:1017C00087F31088EFE7C046280100D000400540AD
:1017D0004B1F0020181F002014190020D03F054087
:1017E00010B50100024A0348FFF756F810BDC04685
:1017F000C8E70010471F0020044A516A00E01900A2
:10180000906A536A9942FAD17047C0460040054039
:10181000164A70B5546A00E01C00956A536AA342E8
:10182000FAD12A0023008018594105000E008C428D
:1018300002D819D1824217D9012201256D42EE1733
:1018400052420A4C636A9342FCD39A420BD1074B33
:101850002800996AA94203D305E0996A814202D21D
:10186000596A9142F9D070BD3200EAE70040054064
:10187000064A536A9942FCD807D1044B02E05A6ADF
:10188000914202D19A6A8242F9D3704700400540E2
:1018900070B504000D00EFF3108672B61A4A136893
:1018A000002BFCD0BFF35F8F002D1BD02000FFF773
:1018B000C5F8164988420AD02000FFF7C7F8012171
:1018C0002000FFF78BF80123A340114A1360114B4E
:1018D000A400E550BFF35F8F00220B4B1A6086F324
:1018E000108870BD0B4BA200D5500122A2400A49BE
:1018F00020000B7893430B700449FFF7B5F90021E2
:101900002000FFF76BF8E5E7280100D03117001041
:1019100038600540141900204B1F0020F0B5D64652
:101920004F464646324CC0B5656A00E00D00A66AD7
:10193000616AA942FAD1AB4209D806D0012420003D
:101940001CBC90469946A246F0BDB242F6D9EFF3D0
:10195000108972B6274C21680029FCD0BFF35F8F35
:101960000126254986408C460978244D0F003743CF
:101970008846F9B28A46614654460C701C49041DDB
:10198000A4004E636250840063510D6A0024354206
:101990001AD04D6A00E025008F6A4C6AAC42FAD139
:1019A000AB4219D801D1BA4216D8C2451DD0104B4E
:1019B000134A1E625E631F2318401E3B8340136060
:1019C0006346424601241A70BFF35F8F0022094B21
:1019D0001A6089F31088B2E70024BFF35F8F0022FA
:1019E000044B1A6089F31088A9E70124ECE7C0468C
:1019F00000400540280100D04B1F0020181F002088
:101A000080E200E010B5EFF3108472B60A490B686B
:101A1000002BFCD0BFF35F8F01238340074A0848A7
:101A2000136202789A430270BFF35F8F00230B604A
:101A300084F3108810BDC046280100D00040054046
:101A40004B1F002070B506000D00140000291ED0A9
:101A5000002A1ED073688068984763006A001B19CB
:101A60005219033B033A3168002808D0CB188A1872
:101A70009D70117800290ED11470280008E08A1892
:101A8000CB1894701978002900D051701D70200077
:101A900070BD0800FCE7597028001470F8E7C046D4
:101AA000F0B5DE4657464E464546E0B58360002316
:101AB00089B04260026806914373C9B2013305914F
:101AC00001738373C1730492012900D8A4E00A0052
:101AD0004B1ED9B2931E0791072B00D8AEE000250C
:101AE000CB080393049B564C591C564B56489B46B7
:101AF000564B9A46564B9C46564B0293524663466B
:101B00005F465E4662401A40504B2740FB185A40E1
:101B10000640534601966646434033404B4E0A709A
:101B2000B046019E0135B146C8444646734016048E
:101B3000360ECE701602120E4A721A04120E0B7373
:101B4000CA731A021B0E4B75029B360E5C4063462D
:101B50001C40404B120E9846029B47445840634637
:101B600018404B4643445840039BEDB28E718A7433
:101B70007C401831AB42C1D1079907230A009A4330
:101B8000531CDBB2914247D0049C5A00A446D218A1
:101B9000591C6244059DC9B2033A51708D423BD92C
:101BA0004A005218981C6244C0B2033A50708542F1
:101BB00032D942001218D91C6244C9B2033A51709A
:101BC0008D4229D94A005218181D6244C0B2033A06
:101BD0005070854220D942001218591D6244C9B282
:101BE000033A51708D4217D94A005218981D624429
:101BF000C0B2033A507085420ED942001218D91D66
:101C00006244C9B2033A51708D4205D94A00521854
:101C10006244033A08335370FF23069A1340590075
:101C2000C918049B9C460023614403394B7009B0DA
:101C30003CBC90469946A246AB46F0BD0123A3E7C3
:101C4000010203047F7F7F7F050607080101010170
:101C5000808080800808080870B50400002907D03B
:101C60004B0000685B18033BC3185A78002A01D167
:101C7000080070BD5500AD18033D40190025467899
:101C800045705D702000FFF7DDFE3100050020008B
:101C9000FFF7E2FF290002002000FFF7D3FE01005A
:101CA000E6E7C046F0B54E464546DE465746E0B547
:101CB0000E0074000168A41985B0033C01920A1952
:101CC0000500107800284CD043001B18033BCB18AC
:101CD0005F78BC46002F16D1019C002C3ED0EC7BD7
:101CE000002C04D063001B19CB18033B5E70EE730D
:101CF00000282FD10023537005B03CBC9046994674
:101D0000A246AB46F0BD7A006244033A89184A788D
:101D1000934600224A7090465A7001003A0028000B
:101D2000FFF790FE5B468146002B07D05B002968D9
:101D30005B44033BCB185A78002A16D15A464946D1
:101D40002800FFF77FFE2968019B0A19002BC6D1E6
:101D50000028CFD043001B18033BCB1800219970FB
:101D6000C8E7019B002BBAD1C4E7500080180338A4
:101D700009184878824640464870587059462800ED
:101D8000FFF760FE53468346002B07D05B002968AF
:101D90005344033BCB185A78002A06D15946524681
:101DA0002800FFF74FFE8346C8E75000801803382D
:101DB000091840464F7848705870514628000297DD
:101DC000FFF740FE8246002F08D0BC467B00296802
:101DD0006344033BCB185A78002A06D15146029A35
:101DE0002800FFF72FFE8246D8E7500080180338FE
:101DF000091840464F784870587002992800039798
:101E0000FFF720FE8046002F08D0BC467B002968E3
:101E10006344033BCB185A78002A06D1039A414603
:101E20002800FFF70FFE0290D8E703205043033845
:101E3000091800204F784870587003992800FFF760
:101E400001FE390002902800FFF706FF0299020008
:101E50002800FFF7F7FD0390E0E7C046F0B54E46D7
:101E60004546DE465746E0B5467B050074000068EF
:101E7000A419033C85B002190191117800294ED0B4
:101E80004B005B18033BC3185F78BC46002F18D18A
:101E9000019C002C40D0EC7B002C04D063001B196B
:101EA000C318033B5E70EE73002931D1002330006C
:101EB0005370697305B03CBC90469946A246AB4648
:101EC000F0BD7A006244033A8018427893460022BB
:101ED000427090465A7028003A00FFF7B3FD5B4607
:101EE0008146002B07D05B0029685B44033BCB187D
:101EF0005A78002A17D15A4649462800FFF7A2FD12
:101F0000019B010028680219002BC4D10029CDD003
:101F10004B005B18033BC31800209870C6E7019B79
:101F2000002BB8D1C2E75000801803380918487850
:101F3000824640464870587059462800FFF782FD97
:101F400053468346002B07D05B0029685344033B6C
:101F5000CB185A78002A06D1594652462800FFF776
:101F600071FD8346C7E750008018033809184046C2
:101F70004F7848705870514628000297FFF762FD6D
:101F80008246002F08D0BC467B0029686344033B8F
:101F9000CB185A78002A06D15146029A2800FFF73A
:101FA00051FD8246D8E75000801803380918404692
:101FB0004F7848705870029928000397FFF742FD48
:101FC0008046002F08D0BC467B0029686344033B51
:101FD000CB185A78002A06D1039A41462800FFF709
:101FE00031FD0290D8E70320504303380918002040
:101FF0004F784870587003992800FFF723FD390087
:1020000002902800FFF728FE029902002800FFF73F
:1020100019FD0390E0E7C04670B5040000292CD0FC
:10202000437B8B422ED0056848004018033828189F
:102030008278002A21D053009B18033BEB181A78B2
:102040008A4202D11BE0002A08D053009B18033BB0
:10205000EB185A788A42F6D142785A70002301224E
:10206000837043702000FFF71DFE617B020020009B
:10207000FFF7E8FC6073012000E0002070BD4278AB
:102080001A70EBE701221900FFF70CFE60730120C4
:10209000F4E7C04610B50400FEF784FC0100200000
:1020A000FEF740FFFF232371BFF35F8F10BDC046D3
:1020B00010B50400FEF776FC01002000FEF732FFA9
:1020C000FF23A380BFF35F8F10BDC04610B504008F
:1020D0000120FEF773FC044B9C46604480002060A6
:1020E000BFF35F8F10BDC046400000342D4B2E4A19
:1020F00070B51A602D4A2E4B2E491A6010008B685D
:102100009843FBD12C4C2D4B9C4209D2013B1D1B0B
:10211000AD080135AD002D1908CC9847AC42FBD174
:1021200000F098F8264A224B1A60224A9368DB0195
:102130008033FBD14022234B234D24489A675A67B2
:102140001A67DA66A84205D30EE0FFF7B1FF200058
:10215000AC4209D2040003680834002BF5D1FFF724
:1021600099FF2000AC42F5D3194C1A4DA168C0224A
:10217000280003F0E3FBA560FEF706FCFEF7A8FECF
:10218000FFF77CF8144C154B9C4209D2013B1D1BF8
:10219000AD080135AD002D1908CC9847A542FBD1FB
:1021A00070BDC04600E00040BFCDFBFEFE7F3C009E
:1021B00000F0004000C00040500E0020600E0020E3
:1021C000FFFFFF0100F00140500E0020400E0020F4
:1021D00000ED00E000000020600E0020680E0020EE
:1021E000094A1368002B06D008491818884208D8F5
:1021F000106018007047064B044918181360884295
:10220000F6D901235B42F4E7D01A00200000042035
:102210001022002000BEFDE70FB400B5084883B0CF
:1022200003F042FD049B002B07D005A91800019183
:1022300001F07CFD034803F037FD00BEFDE7C0461A
:10224000F8E70010340A011010B50148FFF7E4FF69
:10225000ECE7001030B50C2083B000F0B5F9FEF7C4
:102260008BFB00280ED0944B944A1A605A609A60F7
:10227000DA601A615A619A61DA611A62904A5A62A6
:1022800003B030BD8F4CA06700F0F2F901228E4BF5
:102290001A60636C012BFCD103228C4B1A60894AB3
:1022A000936B012BFCD101330093894A0433012144
:1022B000884800F035F90523874A009301218748B3
:1022C00000F02EF9864B5A68FF2A02D8802252006D
:1022D0005A608022784C7D4B21691201804D1A6032
:1022E000002905D0606901F097FD01300138FDD16A
:1022F000E0217B4B02201A681140802252012A43C0
:1023000011601968484003210140116004219A6856
:102310001142FCD08022802192012A4309011160E0
:10232000802252005A606F4B23616F4B5968FF291E
:1023300000D85A6003226C48634B01211A600200E6
:1023400093681942FCD0E02513681D4080235B018F
:1023500003431D6012684A400321114019600221A5
:10236000614A93681942FCD0802380219B0103437A
:102370000901196080215D4B4900516063615C4B2C
:102380005A68FF2A00D8596080225A4BE16912012D
:10239000574D1A60002905D0606901F03DFD0130FC
:1023A0000138FDD1E02252490B681A4080235B01BD
:1023B0002B431A60802380229B012B4312011A6059
:1023C00080223E4B52004A60E3614B4B5968FF2923
:1023D00000D85A608022494B216A1201464D1A608A
:1023E000002905D0606901F017FD01300138FDD1E9
:1023F000E02241490B681A4080235B012B431A609D
:10240000802380229B012B4312011A6080235B00F2
:102410004B602A4B3A4A23623A4B5968914201D8A1
:1024200001325A608022384B616A1201354D1A60C0
:10243000002905D0606901F0EFFC01300138FDD1C1
:10244000E02230490B681A4080235B012B431A605D
:10245000802380229B012B4312011A608023DB0220
:102460004B60174B6362294B5A68FF2A02D88022BF
:1024700052005A608022264BA1691201234D1A6036
:10248000002905D0606901F0C7FC01300138FDD199
:10249000E0221E490B681A4080235B012B431A601F
:1024A000802380229B012B4312011A6080235B0052
:1024B0004B600E4BA361E3E6301A0020006CDC0297
:1024C0001BB70000008000403CB0004030B000402E
:1024D000002F685900800240008C864700C00240EF
:1024E00030800040001BB7003C800040405973071B
:1024F0005480004054B000406080004060B0004014
:10250000FFFF03006C8000406CB00040488000403A
:1025100048B00040014B8000C0587047301A00207E
:10252000F8B504000C201E0017000D0001F074FC2B
:102530004201121A9101891AC9000918890138004B
:1025400001F06AFC069B226836041B033343002A11
:1025500021DB194A194EA21851424A4180214901F2
:102560008C4652420A40164962440A6015490A6084
:102570001700B1688F43FBD1C021221D890111438F
:1025800021222560A0600A602268002AFCDAE3604C
:1025900008230B60F8BD3F2221680A40AA42D8D127
:1025A000A2681205120D8242D3D1EE21E268C9025F
:1025B0000A409A42CDD1EDE70040FDBF00C0004087
:1025C00000E0004000F000408023024A9B000343EB
:1025D000D36270470080054010B580241B4BE40592
:1025E0001C6000282BD00123194C1843194BDC61C7
:1025F000194C44401C62596298628021134BC905F2
:102600001960164816490860E021C9041960002ABB
:1026100004D18022134B12061A6010BD53019B1A7D
:102620009B009A18104B12019A420BD80F4B1A605C
:10263000084B5A6080220B4BD2051A60EDE7054B20
:10264000D861DAE7094A13601A00F1E700B00540E3
:10265000D3C007B0008005402D3FF84FFCFF0100BC
:102660000820014000A00540FFFFFF00D81E002009
:10267000AA23064A1B0113602F230549D360054B8B
:1026800019605368002BFCDA7047C04600400240D6
:1026900000B0FA00006002407047C046F8B55746E7
:1026A0004E464546DE46E0B599460A9B07009A46E7
:1026B0000D9B884693460B9E15009B070FD10C9BE4
:1026C0009E420CD29D1B0E005D44541C4B463100B3
:1026D0002020B8472200A542F7D1B0460B9E002E1D
:1026E00028D04446AD195346AA1B013E985D2100EF
:1026F0004B46B847002EF6D123002C0098460D9B80
:102700009B0710D55B46E51A0C9BAB420BD946469E
:102710002200984601344B46310020200135B8474D
:102720002200A845F6D820003CBC90469946A24617
:10273000AB46F8BD2C00E2E7F0B54F464646D6461C
:10274000C0B584B098460EAB1B7894469946129B50
:102750000D9C109F119E9A0724D401221A40924684
:10276000002E62D1BC420CD21F2C00D9B8E00C9ACA
:10277000551E302201E0202C03D001342A55A742F7
:10278000F9D85246002A0DD0A6420BD9202C5AD097
:102790000C9A551E302201E0202C54D001342A55C9
:1027A000B442F9D1DA0632D55A0555D4002C4FD1AE
:1027B0000F9A102A00D18CE0022A00D17EE030224C
:1027C0000C9C22704A460124002A25D02D220C9D03
:1027D0002A55013403930C9B0296009301944346BF
:1027E0006246FFF75BFF04B01CBC90469946A246C8
:1027F000F0BD202CEED00C9A1519013478222A70E5
:10280000202CE7D030250C9A121915700134202C99
:10281000E0D04A46002AD9D15A0728D41A07D9D578
:1028200020220C9D2A550134D4E7002A24D04A46A0
:10283000002A28D10C321A4225D1BC42A4D21F2C26
:1028400095D9202E1DD92024DA06C3D55A0503D4E4
:10285000A7421AD0B44218D00F9A102A1FD0022AC9
:10286000CED1202CB6D00C9A121901342EE02B2296
:102870000C9D2A550134ADE7BC4293D21F2C00D8E1
:1028800075E720248EE7013ED7E7621E002A10D0AC
:102890000F9D102D2DD0022D15D01400B2E79A06F1
:1028A000A7D5202C96D058250C9A121915700134F2
:1028B000A6E70F9C102C15D0022CEED162220C9CA6
:1028C000227001249EE70C9DAA4652446225157091
:1028D00096E79A06E7D478220C9C2270012491E7AF
:1028E00020244EE79A06F6D558220C9C227001242B
:1028F00088E7023C9D06D6D40C9D2D1914007DE777
:1029000010B5002800D110BD03F07CF9FBE7C046EC
:1029100010B5002803D04A680B681100984710BD15
:10292000F0B5454657464E46DE46E0B59BB0249D81
:10293000259C82468846099299462A002300280051
:10294000210001F046FD002800D0CBE00122D94B48
:1029500052422800210001F037FD002800D0C1E0DC
:102960000122D54B52422800210001F017FD00281A
:1029700000D0B7E0002200232800210001F00EFD66
:10298000002800D0EDE1AB4608948023289ADB00B4
:102990001A40119201D1062326935B460C938023A3
:1029A0005946289A1B011A40089B10920B4300D0ED
:1029B000AFE0002A00D0BFE104260D930E930C93E4
:1029C00000230A93279BB34201D99B1B0A9302273A
:1029D000289B1F4005D0734273410A9A5B421A40FC
:1029E0000A920C9B002B07D0584608990D9A0E9B13
:1029F00001F073FC83460891002200232800210087
:102A000001F0CCFC002805D08020000684460899FF
:102A100061440891289AA94B414613405A460493B1
:102A20000A9B50460393269B0293089B00920193B6
:102A30004B46099A00F0A2F9002E63D0289B0200B1
:102A40009C061F23E4179C436534431C0893200015
:102A50004B464146D0470C9B0024DA179D18DB0FEC
:102A60009B46731E55400C9302E00500202C11D0AC
:102A70000AAA94461F23013463440A2128001E1920
:102A800001F0CAF93031317028000A2101F0C4F98F
:102A9000092DEAD8052306930C9B01940593002386
:102AA00004930A3303935B46029312AB0093089A94
:102AB0004B4641465046FFF73FFE002F22D0099B70
:102AC000C41A279BA3421DD9020057461E00551C5D
:102AD0004B46414620200134B8472A00A642F6D88A
:102AE00028000FE0289B2A000493279B414603936C
:102AF000269B504602932300009201934B46099A6D
:102B000000F03CF91BB03CBC90469946A246AB464F
:102B1000F0BD6B4A089B94465800400D604401F09C
:102B20006BFC684A684B01F0F6FB684A684B01F0A1
:102B3000CBFB089B674A1B031B0B1A4306000F00C5
:102B40000C981100644B002201F0B5FB634A644B02
:102B500001F0E1FB02000B003000390001F0B4FB92
:102B600001F062FC0C9001F047FC5E4A5E4B0600EF
:102B70000F0001F0D0FB00225C4B01F0A5FB01F03F
:102B800053FC5B4A5B4B0D903900300001F0C3FBF6
:102B900006000D980F0001F02FFC574A574B01F02B
:102BA000BAFB02000B003000390001F084FB020088
:102BB0000B000A900B9101F0AEFB06000F000A9883
:102BC0000B9902000B0001F07FFB00220E900F9189
:102BD0004B4B3000390001F080FB0022494B01F0E3
:102BE00073FB02000B003000390001F076FB00227D
:102BF000454B01F069FB02000B003000390001F089
:102C00006CFB0A9A0B9B0F0080210600C90500206F
:102C100001F051FB02000B003000390001F054FBC1
:102C20003A4F02000B000E980F9901F056FB00225C
:102C3000284B01F049FBBC460D9A62441600002265
:102C4000330501F068FB07000D900E000E910200A5
:102C50000B005846089901F0A1FB00285ED13B000B
:102C60003200C6260C9963318E42B64110997642E5
:102C70000436002900D1A3E6134361D0089F244AFB
:102C8000244B5846390001F097FB002807D000225A
:102C9000214B5846390001F081FB002850D1269B7A
:102CA000002B00D18CE6119B5A1E9341269AD31A11
:102CB000269385E6FFFFEF7FFFFFEFFFFFF7FFFFA4
:102CC00001FCFFFFFB799F501344D33FB3C8608BD7
:102CD000288AC63F0000F03F0000F83F61436F6361
:102CE000A787D23F71A379094F930A400000E03FC4
:102CF0001655B5BBB16B0240EF39FAFE422EE63FE6
:102D000000002C400000244000001840FF03000099
:102D10002D431CEBE2361A3F80842E410C9B00228F
:102D2000013B0C930D98144B0E9901F0D6FA030059
:102D30000D900A000E9194E700230D930E930C93CF
:102D4000269B19000C9B994213DDCB1A013B26935D
:102D50008023289ADB001A430023289200260C9334
:102D60002EE680231B069C46A4446346AB4608938C
:102D70000BE600232693EBE700002440F0B5DE4687
:102D800057464E464546E0B597B08046894692463E
:102D90009B46209A219B1000190001F01AFB002885
:102DA00000D01FE2209821990122CC4B524201F021
:102DB000F5FA002800D03EE1209821990122C84B65
:102DC000524201F001FB002800D0E7E02098219951
:102DD0000022C44B01F0F8FA002800D0C7E0209888
:102DE00021990022C04B01F0D9FA002800D0BEE0A2
:102DF000209821990022002301F0D0FA002800D069
:102E0000E1E0002380240D93249BE4001C4000D0CB
:102E1000E9E000220626B54B069207930EAB089315
:102E20002098219901F000FB07000C9001F0E4FAD2
:102E300002000B002098219901F03DFA069A079BA9
:102E400001F069FA0A900B9101F012FB050009905C
:102E500001F0CEFA02000B000A980B9901F02BFA50
:102E60000022A34B0A900B9101F0AEFA002800D18A
:102E700048E12B0001331800099301F0B9FA069AD2
:102E8000079B01F099FA002804D03B0001330C9312
:102E900000230993002E00D0D5E00C9D280001F0FE
:102EA000ABFA02000B002098219901F004FA0022ED
:102EB0008F4B06000F0001F071FA002808D10022A4
:102EC0008B4B3000390001F07FFA002800D17EE101
:102ED000202C00D1FAE00C9F0A21380000F074FF8A
:102EE000089E3031315538000A21651C00F06CFF16
:102EF000002800D180E1202D00D1E7E00A2100F078
:102F000063FF303171553800642100F05DFF0234F9
:102F1000051E14D0202C00D1D8E008AA944617230F
:102F20002800634401340A211E1900F04DFF30319E
:102F3000317028000A2100F047FF051EEAD1032363
:102F4000249A1340012B00D1ECE0202C00D1C2E0E8
:102F50000D9B002B00D111E12D23089A651C135500
:102F6000249B01950393239B0293089B20E0249BC1
:102F700052460493239B49460393229B4046029367
:102F8000209B219C009301945B46FFF7C9FC17B07E
:102F90003CBC90469946A246AB46F0BD249B5B07DD
:102FA0000ED40322534B2499019203912399029149
:102FB000009352465B4649464046FFF76FFBE6E703
:102FC0004D4B0422EFE7209A219B0020002101F0C5
:102FD00072F9012380240D93249BE4002090219119
:102FE0001C4000D115E7229B092B00D808E11900ED
:102FF00030230EAA4E1E08921370092E00D1F9E05C
:10300000537008AA0C0094468E1E1721093C022317
:103010006144302205E00133CA54013E202B00D127
:10302000A3E09C42F7D1354BF2009B181A685B680D
:1030300006920793F4E6249B0393239B02930423B5
:1030400001932F4BB4E7202C40D0099D731E0A2119
:103050002800069300F0E0FE089B30311955280047
:103060000A2100F0D9FE671C0995092D00D892E0CD
:10307000202F2BD0B11E06910A2100F0CDFE089B17
:103080003031D9550998642100F0C6FE099AA51C73
:103090000700632A00D87FE03419013C14E0631B69
:1030A00008AA069394461723013563440A21380081
:1030B0005E1900F0B1FE3031317038000A2100F0A5
:1030C000ABFE092F68D90700202DE8D10323249AED
:1030D0001340012B25D0202542E7C046FFFFEFFF1C
:1030E000FFFFEF7F65CDCD4165CDCDC180842E4101
:1030F0000000E03FE8E90010ECE9001000EA0010F1
:10310000F8E9001000220A980B99494B01F046F9A2
:10311000002800D0BEE62B1E60D1099B0133099325
:10312000B8E62024239B002B00D10EE70D9B002B3B
:1031300003D1249A0C33134202D0239B013B2393E7
:10314000239BA34200D800E708AA94461723302205
:103150006344202CBFD0239901341A558C4200D1EE
:10316000F3E6202CF7D12025FAE6324BF2009B182B
:103170005C681B6806930794202451E6249B5B0738
:1031800020D4249B25001B0700D4E9E62023089ABD
:1031900001351355E4E63D00202D97D008A98C4653
:1031A00017230698634442193021002826D00135A0
:1031B0005955202D30D0AA42F9D12E230899541CFC
:1031C0008B5485E62B23089A651C1355C8E601230A
:1031D000AC462B409C4463460C9379E6DB0700D455
:1031E00058E69AE7249B0393239B029303230193BE
:1031F000114BDDE6012416E72C00A0E62A00DCE7EF
:10320000DA001E000B4B9B185C681B680693079442
:103210000EAB0024089303E60323249A1340012BEA
:1032200000D09DE6239B002B00D199E620247DE76A
:103230000000E03F00EA0010F4E90010F0B5454658
:10324000DE4657464E46E0B5A1B01D002A9B90468B
:103250000B93BD4ABD4B0A908B461A60002900D1E2
:103260000DE2002328789A46002861D0B84B5646D4
:103270009946C24609E0741C320053460A9E5946DC
:10328000B04726002878002850D001352528F2D1F3
:10329000042328789846023B9C460300203B691C87
:1032A000DBB200240A00102B0ED84F469B00FB58BF
:1032B0009F4601230D001C432878691C0300203B16
:1032C000DBB20A00102BF0D90300303B092B41D9A7
:1032D00000272A286AD000230C932E2851D00300FF
:1032E000683BDBB2122B5FD89A499B00CB589F46B4
:1032F00063460D001C43DFE743460D001C43DBE73C
:1033000010230D001C43D7E708230D001C43D3E70F
:1033100080235B0068781C43551C0300253BDBB20F
:10332000532BA8D88C4A9B00D3589F46D046B24610
:103330005246D04501D843465A1E434659460020BE
:103340000A9CA047504621B03CBC90469946A246F4
:10335000AB46F0BD0027030001E00D000131B800CD
:10336000C0194000C0180B7830381A00303A0700F6
:10337000092AF2D918000023AA1C0C930D002E284C
:10338000ADD180236878DB001C430300303B092B60
:1033900000D877E12A2800D1ABE10300683BDBB21B
:1033A00015000132122B9FD91500B6E70B9B80CB7D
:1033B000002F00DA5BE16878AA1C0B930D008AE706
:1033C00068786C2800D14DE280235B001C43551CBB
:1033D000A3E780239B0068781C43551C9DE7687811
:1033E000682800D139E28023551C1C4395E70B9BCC
:1033F00004CB98460C9B0B921078002B00D0A2E1D6
:10340000002801D100F071FC02235B425A1C0B9B87
:10341000944619000D92614401E08B4206D00133BD
:103420001A78002AF9D10B9A9B1A0D938023DB009E
:1034300023400E9305D00D9B19000C9B994200D997
:103440000D93022323400F9300D140E2002800D1C6
:1034500026E20E9B002B00D1E6E141460C9B0C912D
:1034600029009C190B9B5D469B1B3200B8460B93B1
:103470008B460AE0534629000A9F561CB8470B9B0F
:10348000985D002800D104E232009442F2D10C9BF6
:10349000474698465B462600AB461D000F9B002B17
:1034A00000D0FDE143460B93ECE60B9B04CB0B9362
:1034B000002A00D128E121231C43A44610A98846F4
:1034C0001F240F2144440023884603E0202B00D111
:1034D00024E10A0041461140CFB2380037300929B3
:1034E00000D807380133E05411090F2AEED815E14E
:1034F0000B9B04330C93731C0D939846A30700D4C5
:1035000006E20B9B32001878594653460A9CA047A6
:10351000BE19012F00D8A7E22B0042465546B046FF
:103520009A465E460A9F541C2B0031002020B84763
:1035300022004445F7D15346B346AA4626001D0053
:103540000C9B0B939EE6C0463D320010D41E00201B
:1035500008E800104CE8001098E80010782800D126
:1035600052E2582800D183E16F2800D1F3E06228AD
:1035700000D156E3102322009A438023DB000D92F2
:103580002340692800D0BCE30A220E92002B00D110
:1035900046E201230D9A9A430D9280240D9BA400CC
:1035A00023409C46692800D1E7E0642800D1E4E08C
:1035B0006346002B00D094E280230D9A5B001A40F2
:1035C0000B9B904604330F93002A00D02CE30D9BF5
:1035D0005B0600D544E20D9B1B0600D488E30B9BE1
:1035E0001B881800031E00D04DE20D9A1033110005
:1035F00099430D91520500D445E2002398460D9B56
:10360000059706930C9B04930E9B03930023029350
:103610004346019318AB00933200534659460A982B
:10362000FFF78AF80F9B06000B932BE6462800D184
:103630008EE007220B9B04940733934319000C9AE6
:10364000039702920CC90A98009201930B913200E1
:1036500053465946FFF792FB060013E6741C3200EE
:1036600053460A9E59462520B04726000AE6022204
:10367000687814437F42AA1C0B930D002BE6D34BB2
:103680000A93EEE50023010000E02A009800C0182C
:10369000400040185178030008003038551C303B7A
:1036A0000928F2D90C930800023218E62023020000
:1036B0009A43472A04D180231B011C4302239843C9
:1036C000452801D120231C4307220B9B0494073378
:1036D000934319000C9A039702920CC90A9800921E
:1036E00001930B91320053465946FFF719F9060032
:1036F000C8E50B9BA87802CBCA43D21711400C91A6
:10370000EA1C0B930235EAE510232100994311339B
:1037100019438C460023610500D4CFE66246069229
:10372000082205920C9A049210220392002202921F
:10373000019318AB00933200534659460A98FEF79E
:10374000FBFF06009EE5002800D1CDE2013B5DE6CF
:1037500020231C436DE708230E9322000D94802341
:10376000DB001340642800D0CEE2002B00D010E72D
:1037700080241300A40023409C466346002B00D005
:10378000E5E080230D9A5B001A400B9B90460433C2
:103790000F93002A00D0C6E10D9B5B0600D547E1E0
:1037A0000D9B1B0600D499E20B9B00229B5ED91750
:1037B0005A184A401000DA0F1492002B09D18023C6
:1037C00010220D99DB000B4091430D91002B00D08E
:1037D00050E10D9A6123920600D5412310AA1F24BF
:1037E0009446DBB264440A3B159716960B93464603
:1037F0000700A84625000E9C0AE03033DBB20136F4
:10380000AB55A74200D231E1202E00D12EE10700B6
:103810002100380000F000FBCBB20929EDD90B9A4A
:1038200094466344DBB2EAE70B9B32009E1B3300F5
:103830005E46AB4655469A460B970A9F2B003100D1
:10384000541CB8475346185D22000028F6D1AA46FA
:103850000B9F5D46B346260020E6C023A8781C4394
:1038600003355AE5C0239B00A8781C43033554E573
:103870000C2322009A4314331A430D92630500D59A
:10388000D3E080239B001C40F13BFF3BA4460E93FA
:103890008EE60C9B474698465B46AB461D00FDE511
:1038A0000D9B32009F4200D8FCE5BE19F61A2B0092
:1038B0005D469B460A9F541C534629002020B8476A
:1038C0002200B442F7D15B46AB461D00EAE50D9AF3
:1038D000531C974200D812E2BB199B1A0D971F0088
:1038E00032005E46AB460A9D541C534631002020F0
:1038F000A8472200BC42F7D15D46B34626000D9F83
:103900007B1C0D930B9B1878002800D0A1E5C9E51E
:10391000012F00D8F0E1731E3200A846DF190A9E7D
:103920005D460D9C00E00134534629002020B0473D
:103930002200BC42F7D12600AB46454601360B9B20
:103940003A001878594653460A9CA047F8E50722E2
:103950000B9B07339343013294469C4462460B927F
:103960001A685B689C46DB1712931393129813999D
:1039700003005340109364460B0063401193109B67
:10398000119C1B1A8C41109311946346DB0F149306
:1039900063461A4350D00D9A6123920600D5412305
:1039A0000022DBB2904610AA0A3B1F2494460F93D4
:1039B0005B4664441793230015971696AB46109EFA
:1039C000119F44460E9D984610E0C046992600106F
:1039D0003032D2B2434601341A550023BB4200D1E3
:1039E00067E1202C00D167E106000F002A000023C8
:1039F0003000390000F052FAD2B2092AE8D90F9B00
:103A00009C466244D2B2E5E780231022DB002340CB
:103A10000E920C2294430D94002B00D1BDE5B8E525
:103A200080239B001C40A446A7E610230E93B0E51C
:103A30000B9B1B781A00BDE60D9A102311009943C9
:103A40000D915205A7D5002398460D9B0597069327
:103A50000C9B04930E9B0393149B0293434667E6CF
:103A60000B9B1B781800BDE50D9E69E54546159F2B
:103A7000B046169E0D9B059706930C9B04930E9BD8
:103A80000393149BC3E50D9A6123920600D541234D
:103A900010AA1F249446DBB264440A3B149715967F
:103AA0000B9346460700A84625000E9C08E03033DD
:103AB000DBB20136AB55A7420ED3202E0CD0070047
:103AC0002100380000F0A8F9CBB20929EFD90B9AF0
:103AD00094466344DBB2ECE74546149FB046159E1E
:103AE0008DE507220B9B07339343013294469C4498
:103AF00062460B921A6859681300100009910B4333
:103B00005CD10D9A1033110099430D91520555D592
:103B1000002398460D9B059706930C9B04930E9BE0
:103B20000393002399E70B9B1B68D9175A184A4047
:103B30001000DA0F1692002B08D1802310220D9965
:103B4000DB000B4091430D91002B2CD10D9A61238A
:103B5000920600D5412310AA90461F24DBB24444AC
:103B60000A3B14971596A8460B9325000700664656
:103B70000E9C08E03033DBB20136AB55A7420ED3C2
:103B8000202E0CD007002100380000F045F9CBB200
:103B90000929EFD90B9A94466344DBB2ECE745461A
:103BA000B446149F159E0D9B059706930C9B04939A
:103BB0000E9B0393169B029363462AE50D9A61239D
:103BC000920600D541230022DBB2904610AA0A3BA0
:103BD0001F2494460F935B46644414971596AB4696
:103BE00046461693A0460E9D099F04000BE0303216
:103BF000D2B2434601369A550023BB4265D0202EEF
:103C000065D004000F002A0000232000390000F0D6
:103C100045F9D2B2092AEAD90F9B9C466244D2B236
:103C2000E7E702230E9398E50B9B1B68181E08D14B
:103C3000802310220D99DB000B4091430D91002B46
:103C40002CD10D9A6123920600D5412310AA9046EB
:103C50001F24DBB244440A3B14971596A8460B93E5
:103C60002500070066460E9C08E03033DBB20136C3
:103C7000AB55A7420ED3202E0CD0070021003800F0
:103C800000F0CAF8CBB20929EFD90B9A94466344E5
:103C9000DBB2ECE74546B446149F159E0D9B059795
:103CA00006930C9B04930E9B03930023029363469D
:103CB000AFE4B54200D894E6179B109611975D4685
:103CC000159F169EA0469B46BFE6A54297D9169B18
:103CD000B0465D46149F159E9B461BE70B9B1B68D9
:103CE000D9175A184A4065E500230D93FFF79EFB4C
:103CF0000B9B1B68180075E437000D9E1FE60D93A3
:103D000002E60A230E932AE5140082E600B585B088
:103D10000391012102900093034813004A4202A933
:103D2000FFF78CFA05B000BD1129001010B5094A43
:103D300084B01468002C09D0012200910300524283
:103D400003A90548A047012004B010BD01F0ACFF55
:103D50000020F9E7D41E00200129001001480421A9
:103D6000014B1847800500208D3D0010142310B52D
:103D70000100188804331B88984710BD162310B51E
:103D80000100188802331B88984710BDF0B5C6465D
:103D900000B5002916D014230400012598461827E1
:103DA000890046184346216818883B88984701C413
:103DB000431E984140420540A642F3D1280004BC6E
:103DC0009046F0BD0125F9E7124A936F9B0815D282
:103DD0009066D166002905D0FFE7FFE7FFE7516F46
:103DE000106F704704B580210906C21751400028A2
:103DF00000D0C8430AF020FC002104BDF0B5146EC9
:103E0000556E576F166FFFF7E3FF146655665767D9
:103E10001667F0BD000000D0114A936F9B0813D2C3
:103E200010665166002905D0FFE7FFE7FFE7516FF5
:103E3000106F704704B5002801D00020C0430AF07D
:103E4000FBFB002104BDC046F0B5146E556E576FE4
:103E5000166FFFF7E5FF1466556657671667F0BDE6
:103E6000000000D094464E4A926F9208624601D2FA
:103E700030E0C046F0B54A4EB56F6D08FCD3346EE5
:103E8000756E776F366F00F025F89446444A1466D5
:103E90005566576716676246F0BDC0469446404A6D
:103EA000926F9208624601D258E0C046F0B53C4E8F
:103EB000B56F6D08FCD3346E756E776F366F00F09A
:103EC0004DF89446364A146655665767166762463B
:103ED000F0BDC046002B24DB11D000293EDA00B52E
:103EE000C943404200D1013100F038F8C943404293
:103EF00000D10131DB43524200D1013300BD002A21
:103F0000EBD1002801D1002905D00020C90FC90735
:103F100001D1C043410800B50AF076FB002200231E
:103F200000BD00B500290ADBDB43524200D101335A
:103F300000F014F8C943404200D1013100BDC9432B
:103F4000404200D10131DB43524200D1013300F045
:103F500005F8DB43524200D1013300BD002923D1D3
:103F6000002B18D1002A0CD0BC460D4F38667A665B
:103F700000210023FFE7FFE7FFE77A6F386F67460E
:103F80007047002801D00748010000B50AF03CFB4B
:103F90000022002300BD02000B000020002170471A
:103FA000000000D0FFFFFFFF002B00D0BFE0130C8C
:103FB00028D1002AE7D080B4114F39667A66FFE72E
:103FC000FFE730B4040C7B6F396F1B0423433B665F
:103FD0007A66FFE7FFE7FFE7C04684B27B6F3D6F7D
:103FE0001B0423433B667A66FFE7FFE7C0460023D6
:103FF0002C042D0C7A6F386F00196941B0BC7047E2
:10400000000000D0F0B594460025140E01D1120234
:104010000835140F01D112010435940F01D192001B
:104020000235D40F01D152000135D40B0134254F94
:104030007C66254C3C660E0C93B2FFE7FFE7FFE77A
:104040003C6F6643360C7703BE467343DF0B5B045D
:10405000C01AB941130C7343DB18C91ACE08664362
:10406000360CB64493B273431F0F1B01C01AB941FB
:10407000130C73431F0B1B05C01AB941860D8F0229
:104080003E436643360C092D24DB520A7243801AE4
:104090007703460A6643360C16235B1BDE40DF407F
:1040A000BF1964466643821B70460435063301001F
:1040B000D940A840C01900D30131A24206D2002342
:1040C000F0BD0000000000D0FFFFFFFF121B013019
:1040D000F3D3F1E709277F1BFE406446A2B2724387
:1040E000801A00D20139220C7243130C1204821A76
:1040F00099410B007046043513370100F940A84080
:10410000801900D30131002B02D1A2420AD2F0BDA6
:10411000013000D30131121BFAD2013BF8D1A24287
:1041200000D2F0BD013000D30131121BF7E7F0B52A
:104130001C0C00D080E00CB400251C0A04D11B022A
:10414000160E3343120208351C0B04D11B01160F47
:104150003343120104359C0B04D19B00960F33436B
:1041600092000235DC0B02D192185B4101351C0034
:10417000971864410134464F7C66464C3C660E0CF1
:10418000FFE7FFE7FFE7C0463C6F6643360C770367
:10419000BE4697B27743C01B00D20139C01B00D284
:1041A00001399FB27743C91BC91B170C77437E04A3
:1041B000FF0B801BB941CE086643360C0C2D33DB58
:1041C000B644120B1F053A431B0B97B27743C01B33
:1041D00000D201399FB27743C91B170C77433E04C5
:1041E0003F0C801BB941860D8F023E436643292751
:1041F0007F1BFE400C3D7746AF40BF1930BCA2B2DA
:10420000ABB272437343801A9941220C7243130C70
:104210001204801A994102000B000137001BA941CA
:10422000F9D2781E0021F0BD0C277F1BFE40774697
:104230007F0BAF40FF19E0E700245D1C07D0144F4F
:104240007D663966FFE7FFE7FFE7FFE73C6F95B262
:104250009EB265436643401BB141150C1E0C65437D
:10426000664336042F0C3E432D04401BB141994256
:1042700004D202000B0020000021F0BD01D19042C9
:10428000F7D3801A994101349942F2D3F6E700003E
:10429000000000D0FFFFFFFF44464D4656465F46F4
:1042A000F0B47047F0BCA046A946B246BB46704782
:1042B00048404140484018B41B4B5B68FC460193A2
:1042C00008BD04DF674B001018B4174B1B68FC4691
:1042D000019308BD00DF714B00109446134A926FA2
:1042E000920809D2624618B40F4BDB68FC46019372
:1042F00008BD0CDF294E00100C4AF0B5146E556E47
:10430000576F166F6246FFF7EEFF084A1466556650
:1043100057671667F0BD18B4034B9B68FC460193C2
:1043200008BD08DFCD4C00104C1F0020000000D05D
:10433000FFB550404240504059404B40594000E08A
:10434000FFB5154F4C00640D03D0BC4204D10C03E3
:1043500014D80020090D09055C00640D03D0BC428F
:1043600004D11C030AD800221B0D1B0501264B405B
:1043700009D44B4003D58B4200D18242FFBD994204
:10438000FCD19042FFBD0B43DB1803431343F5D030
:10439000C9434918FFBD0000FF07000000B5FFF743
:1043A000CFFF804100BDC04600B5FFF7C9FF01D96E
:1043B000002000BD012000BD00B5FFF7B9FF01D905
:1043C000002000BD012000BD00B5FFF7B1FF804116
:1043D00000BD012040054A00121804D85A001218E6
:1043E00001D800207047012070470020704700006E
:1043F0000021002805D17047C1174840401AFAD063
:10440000C90713B5064B1B6898470CBC441CA24057
:104410001005120B0349091B09051943114310BD6F
:10442000081F00201F04000010B54C00620D8023FF
:10443000D218DB00D21A5B057E2A10DD9E3A13DA11
:10444000CC170903490819435242D1406400013492
:104450001532202A05DAD0400843604310BD002001
:1044600010BD0846604310BDC80FC018013810BD0C
:1044700018B4044B5B6AFC46019308BD24DF055267
:10448000001000004C1F002018B4044B1B6EFC46AB
:10449000019308BD60DF1353001000004C1F002083
:1044A00018B4044B5B6EFC46019308BD64DF0953EE
:1044B000001000004C1F002018B4044BDB6FFC46BA
:1044C000019308BD7CDF9D52001000004C1F0020AE
:1044D00018B4044B9B69FC46019308BD18DFF54FE7
:1044E000001000004C1F0020024A034B00B500F0F2
:1044F00019FB00BD182D4454FB2119408A0002D33A
:10450000920D092A08DA18B4064BDB6BFC460193BE
:1045100008BD3CDF4754001000B5FFF7E5FF04BCC1
:104520009646F0E74C1F00208A0002D3920D092A1C
:1045300008DA18B4064B1B6CFC46019308BD40DF3B
:104540005754001000B5FFF7CFFF04BC9646F0E7C4
:104550004C1F002018B4044B9B6DFC46019308BD12
:1045600058DF4555001000004C1F0020132370B584
:104570001D78012D15D010DD2648FFF7FFFB264CD6
:1045800001008022200001F0D9F9022D06D0234835
:10459000FFF7ECFB224B186070BD1F4C214AA26450
:1045A000F5E71D4C1F4AA3085B421D402FD02B008E
:1045B00022602020A9006118451B0A604A608A60B9
:1045C000CA600A614A618A61CA610A624A628A6291
:1045D000CA620A634A638A63CA630A644A648A6471
:1045E000CA640A654A658A65CA650A664A668A6651
:1045F000CA660A674A676D08102D03D18A67CA67C1
:10460000A264C4E71E339B00E250A264BFE700230C
:10461000CFE7C046534400004C1F00204C3300003D
:10462000081F0020354B0010254A4B0094465B0DB7
:104630006344F0B55A1C24DB5A1C3AD03422D21AF7
:10464000002A1DDD3324E41A20235B42E5181ED422
:104650000126AE4033000126A640320012184B411D
:10466000002D20DB0226AE4031000225A5402800A7
:104670001600002544428D4126402B403000190091
:10468000F0BD0022C90FCB0710001900F8E7202663
:104690000127361BF7400126A6403B0032001218C6
:1046A0004B41002DDEDA202502262D1BEE40310085
:1046B000DBE7CB0F034ADB071A4300201100DFE7DB
:1046C00001FCFFFF0000F03FF8B502000B00040002
:1046D0000D0000201049FFF7EEFD002206000F003C
:1046E0000D4B20002900FFF7EFFD0B000200390001
:1046F0003000FFF710FE4B005B0D01D0002908DBF6
:10470000FFF7E6FE02000B0020002900FFF722FF62
:10471000F8BD00200149FBE70000F03F0000F07FFA
:10472000F0B55746DE464E464546E0B55C00640DA2
:10473000A246574C94464A0087B0520DA24265D01B
:104740005446002C62D0CC0F0394002A0CD1002CCC
:104750005FD1002400252000290007B03CBC904612
:104760009946A246AB46F0BD04000D005245F2DB6F
:10477000802009031B0340031B0B090B0143184353
:1047800053460D006146D31A009101909846002BC4
:1047900062DD011101204042FFF73EFB834616E037
:1047A00022009A40170023004A4693401E00009AB8
:1047B000019B4810C91700F0CFFF43464A4634001A
:1047C0003D009B1A241A8D419846002B25DD434657
:1047D000C1460C2B01DD0C2399465B46A9115943B8
:1047E0004A461D239B1A202219414B465242013151
:1047F0009B18D5D54A4620239B1A2200DA4048460A
:1048000013002A00824017001F43CCE70024214DEB
:10481000A1E7802500242D069DE7019BAB4226DD04
:10482000002D07DA009A019BA4185D41002D01DAE2
:10483000A4185D41039B002B04D022002B0000250F
:1048400054429D415346144A20002900D21AFFF7D2
:104850001BFE04000D007EE7009A019BAB42E9DCE1
:10486000AB4211D0009A019BA41A9D41E2E7009A45
:10487000019BAB4201D1A242D2D8009A019BA41A5B
:104880009D41AB42ECDDD5E7009BA342EAD9D1E7DD
:10489000FF0700000000F07F33040000F0B5DE46A3
:1048A000574645464E46E0B59B465B005B0D89B0DA
:1048B0009A46129B4D0004006D0D002B02D01E0085
:1048C00000233360944B9D4200D1ADE05646002E4C
:1048D00000D1A9E0002D00D1A9E09A4500D19CE0CB
:1048E0005346013B0393AB4200DD96E0CB0F0E0332
:1048F0009946330B984680235B039C46260043462B
:10490000644623431F005B461C036346240B23437A
:104910000193039B0092AB4256D05346ED1A4B468F
:10492000002B00D1B9E033003C0000275E42A741D4
:10493000002D00DCC5E00120019B40421911FFF76A
:104940006BFA00239946534604935B460390059304
:10495000AB461BE032009A401500330052469340AC
:104960001C0043464046D917009A019B00F0F4FE14
:104970004B4652469340434499465B4626002F00DF
:104980009B1A361A8F419B46002B53DD5B46DA4655
:104990000C2B01DD0C239A46039ABB11534351465D
:1049A0001D22521A1341202201335B1052429846B5
:1049B0008B18CFD5202332005B1ADA4013003A005F
:1049C0008A4015001D43C8E7019B9F4205DC009B00
:1049D000019CA74221D19E421FD9009801994B46C4
:1049E00000184941002B00D080E0039B361A8F410C
:1049F0009A46012399465B46002B02DA4B465B42FE
:104A00009946129B002B01D04A461A605346434AEE
:104A10003000D21A3900FFF737FD09B03CBC904690
:104A20009946A246AB46F0BD00203D49F5E700207F
:104A30000021F2E7049B9A46059B9B46009B019C44
:104A4000BC4250DC4CD0009B019CF61AA741BC42F2
:104A500059DC55D0009B019CF61AA74102239C46C5
:104A6000E1443200009801993B0092197B411C00FF
:104A700023008B4209DC21D000998A42BBD1019AE4
:104A80009342B8D14B46DB07B5D5009B019CF61A83
:104A9000A74101239C46E144ADE7002D00DD4AE734
:104AA000019BBB42DDDC009B019CBC4201D1B342B7
:104AB000D7D8009B019CF61AA74124E08242E4D893
:104AC000DAE700239946009B019CF6186741002F06
:104AD0001DDAF618674102235B429C46E144C0E7B9
:104AE000009BB342AFD9002FEDDBBAE7039B801BDD
:104AF000B9419A4601235B4206000F0099467AE7C6
:104B0000009BB342A6D901239C46E144A9E70123B7
:104B10005B429C46E144A4E7FF0700003304000029
:104B20000000F07F10B5002482B00094FFF7B6FEBD
:104B300002B010BD07B5604601880A0A0230DF2ABC
:104B4000FAD1C9B2820804D3028840880004104315
:104B500000E00068014A5050039007BD4C1F002040
:104B60000FB403BC0CBCF0B50124E407634000E0C3
:104B7000F0B50C0DCF0F661E3605891B640503D3F7
:104B8000C943404200D30131640D03D0661CF60ACC
:104B900007D0E41B00207F00791C89078912803C24
:104BA00024031D0DDF0F6E1E36059B1B6D0503D301
:104BB000DB43524200D301336D0D03D06E1CF60A65
:104BC00007D0ED1B00227F007B1C9B079B12803DC2
:104BD0002D032F1B661B58D4A446202E46DA2037FF
:104BE0001400BC401D00BD40F24033412A438018F0
:104BF0005941CB0F05D0C943C04300226442504104
:104C0000514162464D0D28D10D0D07D100281FD00E
:104C1000241940414941013A0D0DF9D0640006D3F1
:104C2000013000D30131002C01D140084000013A8D
:104C30000BD4941CE40A04D112051144DB07194477
:104C4000F0BDD907204B194300E0D9070020F0BD83
:104C50000029DDD1002CDBD1F0BD0132C6074008B0
:104C6000CD0728434908002EE1D0D9E73C2E29DAA8
:104C7000203E40371400BC4000D00124F2401443D1
:104C80001A00BB401C43D317ACE7AC46202F08DA10
:104C900020360400B4400D00B540F84039412843A7
:104CA000A5E73C2F0CDA203F40360400B44000D08A
:104CB0000124F84004430800B1400C43C117EAE75F
:104CC00010001900002494E70000F07FF0B50C0DEF
:104CD000661E3605891BE60A6405640D02D0651C54
:104CE000ED0A04D0002001210905803C2403A446DC
:104CF0001C0D671E3F05DB1BE70A6405640D02D02F
:104D0000651CED0A04D0002201231B05803C24030E
:104D10007740644497B484B296B27443070C7E43E0
:104D2000150C6F4380B26843361802D3012000048B
:104D30003F183004350C00197D41844688B29AB280
:104D400050430C0C62431F0C7C438EB27E4392197D
:104D500002D301263604A4191604170C361867412D
:104D600001BC81B29AB25143040C62431B0C5C43F8
:104D700080B25843121802D30120000424181004F2
:104D8000130C401863412D185E410020474106BCBA
:104D900088B293B258430C0C6343120C544389B24B
:104DA00051435B1802D301210904641819041A0C39
:104DB000091862416D1856410020474118BCF9029C
:104DC000720D1143F0026A0D1043ED020A0D03D17A
:104DD0006D1940414941013B124E9B1B7600B34285
:104DE0000ED26D0007D3013000267141664635436F
:104DF00001D1400840001B05C918E4072144F0BD5B
:104E00000BDA013306D1013004D101314F0D01D04D
:104E10004908F2E7E1070020F0BD01363105002026
:104E2000EBE70000FF030000F0B51C0D671E3F0517
:104E3000DB1BE70A6405640D02D0661CF60A04D089
:104E4000002201231B05803C2403D0252D060026CB
:104E5000F6432E661E096E66CE0FF619B44649005B
:104E60004F0D02D07E1CF60A03D000200021403FE7
:104E70003F033E1BB600B444013F7F05C91B4908F0
:104E80002E6F013676089C02950D25437543ED1370
:104E90007543AD1301356D10F603761B0CB4CC02CF
:104EA000450D2C43A2B2B3B25A43270C7B43350CB9
:104EB0006F43A4B26C431B1902D3012424043F198D
:104EC0001C041D0CA4187D4124196D41009A91B257
:104ED000ACB26143170C7C432B0C5F4392B25A4334
:104EE000A41802D301221204BF182204230C521862
:104EF0007B41019C6C431B19520ED9010A434401AA
:104F0000A01A81B2B2B2514303145A43360C734310
:104F100087B27743D617D21900277E4136049B19F2
:104F20001704160C7F185E417316ED18F301002666
:104F300080337541A90F06D16400690AE8055B0A50
:104F4000184309D22FE00422944480337541A90A02
:104F5000A8059B0A184326D3404149412404009ADE
:104F6000019B0D005543641B4343E41A95B286B27E
:104F70007543170C7E43030C5F4392B25A43B61835
:104F800002D301221204BF183204330C52197B41A0
:104F900052429C41002C02D4002201305141400871
:104FA000CA071043490802B06246D7079210084B5F
:104FB000D218084B9A4203D212058918C919F0BDBC
:104FC0000020002A01DC3900F0BD01331905F5E7A6
:104FD000FD030000FE07000007DA002107E0C90F0B
:104FE000C907520D03D0C91201E04C490905002040
:104FF0007047C0464A00F2D2520D013A484B9A42DD
:10500000EAD2F0B51405091B520801D30018494132
:105010009B08D2181205944640A44A0CA25C0B09C6
:10502000534353431B1353435B131202D21A13000F
:105030005B435B0B4C086343DB135343DB150133CA
:105040005B10D21A130CD21A13005B438902840D31
:1050500021438DB29EB275430F0C7E431B0C5F4300
:105060008CB25C43361902D3012424043F19340462
:10507000330C64197B419D01A40E2C432034A5B24E
:105080005543241454432D0C6419A411D203121B4C
:1050900095B28EB27543170C7E430C0C674393B2E6
:1050A0006343F61802D301231B04FF183304340CA6
:1050B0005B197C41DB186441DB18002363419EB21D
:1050C00076439DB21F0C7D437F436C04ED0BA41906
:1050D0007D4106028F08361BAF417D07F6086E4101
:1050E000B4B295B26C4337147D43120C5743B6B239
:1050F0005643EA17AD19002672411204BF182E0458
:105100002A0C36197A410832521117D29D0A9C0591
:10511000D117101969416144F0BD0000FF0700007C
:10512000FE070000F8EBDFD6CDC5BEB8B2ADA8A42F
:10513000A09C9995928F8D8A8885838152415D0AC2
:10514000DC05D11714194D412B006343A6B27643F9
:10515000A2B2270C7A437F435104D20B89197A41BA
:10516000D218D21880054942904102D4002301345C
:105170005D4160086908ED0728436144F0BDC04601
:10518000624618CA94465A46002A20DB04E062466A
:1051900018CA944600291ADAC01861415B463B419F
:1051A0005C46B4405246FA40224344464D46624172
:1051B0006B41904699462B46B3403D41FC401C4311
:1051C00052465B46A241AB4192469B467047C01A8D
:1051D000A1414B463B414C46B4404246FA40224333
:1051E00054465D4662416B4192469B462B46B34016
:1051F0003D41FC401C4342464B46A241AB419046D8
:1052000099467047002200B5203200F010F80800DF
:1052100000BD002200B500F00CF8CA179A4200D178
:1052200000BDD8430121C907414000BD00220B1534
:105230000AD410B5944600F0A7F81414013400DA2B
:105240000021CB17144C20470020002170476244F6
:10525000343A0CD40C2A07DA0400914090405242B0
:105260002032D440214310BDD843D94310BD203251
:1052700007D40C469440524220321141D040204382
:1052800010BD0800C917203203D452422032104109
:1052900010BD1800190010BD4F5200104A00520DE9
:1052A000144BD21A13DDFF2A1EDAD205CB0FDB070F
:1052B0001A43C300400F0903490A084310435B0027
:1052C00001D301D0013070474308FBD2704702D0B0
:1052D000C80FC00770470A0312130132F8D1420FFA
:1052E000072AF5D1012200E0FF22C80F0002801832
:1052F000C00570478003000000210A00002104E07F
:1053000000210A00C11704E00022002306E0C04685
:105310000022CB1758405940C01A994130B5184C5B
:10532000A21A002903D1010010D00020203A4C1508
:1053300012D104D2013A001849414C0DFAD3114C54
:10534000A24204D212058918DB07C91830BDD24326
:10535000520D00200021F5E703D4013A001849411D
:10536000FBD50B324405C00A4D052843C90A640029
:1053700003D0002460416141E1E7E0D34408F8E74D
:1053800032040000FE0700000A0DCC0F531E1B055F
:10539000C91A520503D3C943404200D30131520D0B
:1053A00003D0531CDB0A07D0121B00206400611CD1
:1053B00089078912803A1203014BD21A7047000004
:1053C000FF030000023225D40C2A1CDA1125AD1A85
:1053D0000B002B41083207350600EE40904091400B
:1053E0003143F0CC63431A1500235A4155435643C9
:1053F0005743BF02F412760576196741ED177F19FE
:10540000801BB94170470C220020C91749000131A7
:105410000905DBE70902030E19430002534220325B
:1054200008D40C0019419440D84020430022504138
:10543000514170470800C917203B2032F1D50020A8
:10544000002100227047F0B5FEF726FF00F00EF8AD
:1054500000F030F806E0F0B5FEF71EFF00F006F8A9
:1054600000F046F8FEF71EFFF0BD000000B5FFF7A4
:105470008BFF30A4FFF7A6FF00242C4D2C4ED20743
:1054800002D3F6436D426641520004D2A246A346BF
:10549000A846B14603E0A046A146AA46B3466EA47C
:1054A000A44601271F26FFF772FE0137013E212F78
:1054B000F9D100BD594684B28DB26C4306147543D0
:1054C0000B145E4382B25A43AD18EA1700D7D24399
:1054D0001204B6182A042B0C12197341404649468F
:1054E0009D009B17920F2A43904199413E2210E75D
:1054F000494684B28DB26C43061475430B145E4367
:1055000082B25A43AD18EA1700D7D2431204B61834
:105510002A042B0C12197341504659469D009B17C3
:10552000920F2A43504159413E22F2E6BB4DF09D75
:10553000C556F6367D5100001A61140085880A00B0
:10554000FB211900F0B5FEF7A7FE404D0C002C40E2
:1055500001D0AC4202D1090D090500201C002C40ED
:1055600001D0AC4202D11B0D1B0500220026ED022A
:10557000002B04D502266B40694000D476424F19B7
:1055800004D599420CDD0136694003E0BB4207DADD
:10559000013E6B40070010003A000F0019003B006D
:1055A00040B4002A0FD1002B0AD05C0064150134EE
:1055B00009D14C006415013402D10139013B02E0EC
:1055C000002000212EE0FFF72FFC3E22FFF722FEF5
:1055D00082468B4600200021804601229207914698
:1055E0001DA4A44601271F26FFF7CAFD0137013E6F
:1055F000212FF9D14A4653460C3A0124640700276B
:1056000052081B0005D49341001979416408F7D171
:1056100004E05341001BB9416408F1D1CE074910A1
:105620004008304340BC002E0AD0094C094D01D53A
:10563000E443ED43F60701D10019694100196941BE
:105640003D22FFF766FEFEF72DFEF0BD0000F07F65
:105650008D305A88A8F64332694FBB610567AC1D8F
:10566000B16E4096FCBAAD0F72DB0BABA66EF507C0
:1056700039BD9FE576ABFE034B6297BA5BD5FF0160
:10568000D694DBDDAAFAFF005DEAEE5655FF7F00F7
:105690006E77B7AAEAFF3F00BCBB5555FDFF1F0060
:1056A000DEADAAAAFFFF0F006F5555F5FFFF0700FB
:1056B000ABAAAAFEFFFF03005555D5FFFFFF01006F
:1056C000ABAAFAFFFFFF00005555FFFFFF7F000068
:1056D000ABEAFFFFFF3F000055FDFFFFFF1F00008B
:1056E000ABFFFFFFFF0F0000F5FFFFFFFF0700000C
:1056F000FFFFFFFFFF0300000000000000020000AA
:105700000000000000010000000000008000000018
:105710000000000040000000000000002000000029
:105720000000000010000000000000000800000061
:105730000000000004000000000000000200000063
:1057400000000000010000000000008000000000D8
:10575000000000400000000051434343C9188C463C
:10576000110C83B24B4310B4040C614392B280B26B
:10577000504362431C041B0C001910BC5941130414
:10578000120CC0185141614470470000034BDB6F9D
:10579000FC4618477CDF5558001000004C200020C4
:1057A000C11502D4054B9B691847C843FF2801D196
:1057B000C0077047C817C005704700004C20002084
:1057C000132310B51C781348FEF7D8FA012C0BD020
:1057D00004DD01008022104800F0B0F80F48FEF709
:1057E000C5FA0F4B186010BD0B4C0100542220006D
:1057F00000F0A4F80B4B6365A365E365236663665D
:10580000A366E36623676367A367E3672362E361D5
:10581000E4E7C046534600004C2000204C33000013
:10582000081F00202958001007B5604601880A0AA1
:105830000230DF2AFAD1C9B2820804D30288408834
:105840000004104300E00068014A5050039007BD77
:105850004C200020C30FDB0741000A0E07D0FF2AAF
:1058600008D00909054A89181943400770471900EB
:10587000002070470249C918FAE70000000000380C
:105880000000F07F70B504000A4E300008F0ECFE16
:10589000200007F021FE0500300008F0ADFE002DCD
:1058A00005D0054B2C199C4201D8280070BD034837
:1058B000FCF7B2FC400E00200000042050EA00106B
:1058C00070B505000C000B4E300008F0CDFE28002E
:1058D000210007F00FFA0500300008F08DFE002DC2
:1058E00005D0054B2C199C4201D8280070BD0348F7
:1058F000FCF792FC400E00200000042050EA00104B
:1059000070B50500054C200008F0AEFE280007F039
:10591000EDFD200008F070FE70BDC046400E002076
:1059200001480421014B1847900500208D3D0010CF
:10593000014B1B681847000090050020014B5B6875
:105940001847000090050020030010B508001B68F0
:105950001100984710BDC046F8B54746CE4680B501
:10596000437C80460C001500002B43D0002A34DD18
:105970000A78037C00200A2A33D0012D1ED0204B48
:105980000121671E994602E03100B54216D0635CE2
:105990007A5C4E1C0A2BF7D10D2AF5D043461B68C2
:1059A000884204DA091A2018984743461B680221E6
:1059B0004846984730003100B542E8D1854204DDC1
:1059C0004346291A1B68201898476419013C23781C
:1059D0000D3B5A425341424613740CBC90469946C3
:1059E000F8BD002BC9D14346054802211B689847E2
:1059F0000120C2E70368110020009847EDE7C04688
:105A0000C4EA0010F8B54E46DE4657464546344BCC
:105A1000E0B51C688146002C4ED0324B9A46324B82
:105A20009B4602E0E468002C46D02368002BF9D0A6
:105A300052461268002A01D0A242F3D14F46627C3E
:105A400040CF002A48D0002EECDD49460979227C5F
:105A500000200A2939D0012E1ED04B4601215D1CA1
:105A600003E001354146464516D04B1C98462B793C
:105A7000EA780A2BF5D10D2AF3D02368814203DDA1
:105A8000091A381898472368022158469847013563
:105A9000404641464645E8D1864203DD311A236837
:105AA00038189847BF19013F3B780D3B5A42534184
:105AB0002374E468002CB8D14A46002313603CBC30
:105AC00090469946A246AB46F8BD002AC3D1064887
:105AD000083998470120BEE7310038009847A1E710
